:100000000C94AD0E0C94D50E0C94D50E0C94A82423
:100010000C94A8240C94A8240C94D50E0C94D50E02
:100020000C94D50E0C94D50E0C94D50E0C94D50EC4
:100030000C94D50E0C94D50E0C94D50E0C94D50EB4
:100040000C9406240C94D50E0C9476240C94502415
:100050000C94D50E0C94D50E0C94D50E0C94D50E94
:100060000C9420250C94D50E07634236B79BD8A775
:100070001A39685618AEBAAB558C1D3CB7CC5763CD
:10008000BD6DEDFD753EF6177231BF000000803F7B
:1000900008000000BE922449123EABAAAA2ABECD97
:1000A000CCCC4C3E00000080BEABAAAAAA3E000009
:1000B0000000BF000000803F000000000008417801
:1000C000D3BB4387D1133D190E3CC3BD4282AD2B38
:1000D0003E68EC8276BED98FE1A93E4C80EFFFBE30
:1000E00001C4FF7F3F000000000012000505050667
:1000F0000507061A3700FD2EF42E0000000000024E
:10010000F520060080401F2A3194AA601F1190A498
:10011000824294800C8318C33002118C40058938C8
:1001200048510A728814A8600422186318C4184839
:1001300050881228029210002B1252B249DF18CCBC
:100140003CF3811F788CC1CC33002C0F26B1BD58F5
:1001500008A2085220885800002D09D2B04F1FFC79
:1001600081072E0DC6B0C05808A208911804002FB0
:1001700047D6A5401F1AEF780634DEF18C773C0392
:100180001AEF780634DEF10C68BCE319D078C73377
:10019000A0F18E67BCE319D078C733A0F18E674019
:1001A000E31DCF80C63B9E018D773C031ACF80C6EE
:1001B0003B9E010D0800302DD79DC01E1D6E51CFF6
:1001C00089CA44A68114441CE708476A16FBFFFF4E
:1001D000DF6AD2118C6408A42063225389CEA3164F
:1001E0007720003117CCD540DF9895134146123E59
:1001F00050856418C6FCFFFFFF033241D79DC01E27
:100200001D6E51CF89CA44A68114441CE708476A71
:1002100016BBD5A42310CB10C33ADE018F77400361
:100220001EEF80063CDE018F7782C73BC1E31DD005
:1002300080C73BE0F14EF0037FC001333BD79DBF49
:100240001EFC030E3CDE091EEF80063CDE010D782D
:10025000BC031E0F79895B18B31A9740241AF188E2
:10026000E63F12AC4310E908C7418222924111C90E
:1002700040A8610902003437D79DC01E19D0886696
:10028000D08866D088A65844B35844B35844B36164
:10029000A08218C720C63188710C629CA218C6289B
:1002A00086318A613EF0079C6544F367003538D794
:1002B0009DC01EFC035434FFC4812233116A54A232
:1002C000124941C2918C70A466316B6146345F5C07
:1002D00018B398D5A42318C9104841C644A6129D46
:1002E000472DEE4000363FD79DC01E1D6E51CF8971
:1002F000CA44A681144418C908476A162B9A6F1875
:10030000283213A146252A91142420E708476A16AB
:10031000FB6F35E908C7390452903191A944E75180
:100320008B3B10003737D79DC01EFC03946A2923EE
:1003300018E908463A82918C68C01334A2014FD064
:1003400088063C41039E41039EA0110D78824634ED
:10035000E0091AD1802768C03305003844D79DC012
:100360001E1D6E51CF89CA44A68114441CE708475C
:100370006A16FBAD261DE13887400A32A61299584D
:1003800099C834908288E31CE148CD62BFD5A4238C
:100390001CE7104841C644A6129D472DEE40003987
:1003A00041D79DC01E1D6E51CF89CA44A6811444F9
:1003B0001CE708476A16FB6F35E908C7410252126D
:1003C000511B14994C848C6144737161CC625693B7
:1003D0008E60244320051913994A741EB5B8030191
:1003E0003A1446B3C6380CA208D1103E480BA208F6
:1003F0009120020000000004FFFF00002500C2B0B1
:100400000031302E3000322E3500504D202020207B
:1004100000504D2020202000504D533530303320E7
:10042000416972205175616C6974792053656E73EE
:100430006F72004661696C7572650000640000644B
:1004400000006400006400006400006400006400B8
:1004500000640000640000640000640000640000A8
:100460006400006400006400006400006400006434
:100470000000640000640000640000640000640088
:100480000064000064000064000064000064000078
:1004900064000064003767004A6F00587900648286
:1004A000006F8C007B9500859E0090A7009AB0009D
:1004B000A5B900AFC100B9CA00C3D200CDDA00D8D7
:1004C000E200E2E900ECF100F6F800FFFF00FFFFB8
:1004D00000FFFF00FFFF00FFFF00FFFF00FFFF0026
:1004E000FFFF00FFFF00FFFF00FFFF00FFFF00FF17
:1004F000FF00FFFF00FFFF00FFFF00FFFF00FFFF07
:1005000000FFFF00FFFF00FFFF00FFFF00FFFF00F5
:10051000FFFF00FFFF00FFFF00FFFF00FFFF00FFE6
:10052000FF00FFFF00FFFF00FFFF00FEFA00FCF5E9
:1005300000FAEF00F9EA00F7E400F6DE00F4D80074
:10054000F3D200F1CC00F0C500EFBE00EDB700EC37
:10055000AF00EBA700EB9F00EA9600E98C00E98072
:1005600000E87400E87400E87400E87400E87400BF
:10057000E87400E87400E87400E87400E87400E8C7
:100580007400E87400E87400E87400E87400E8742B
:1005900000E87400E87400E87400E87400E874008F
:1005A000E87400E87400E87400E87400E87400E897
:1005B0007400E87400E87400E87400E87400E874FB
:1005C00000EA7100EB6E00EC6B00EE6800EF640077
:1005D000F06100F15D00F25900F45500F55100F6AC
:1005E0004C00F74800F94200FA3C00FB3600FC2EB4
:1005F00000FD2500FE1800FF0000FF0000FF0000C6
:10060000FF0000FF0000FF0000FF0000FF0000FFF0
:100610000000FF0000FF0000FF0000FF0000FF00DF
:1006200000FF0000FF0000FF0000FF0000FF0000CF
:10063000FF0000FF0000FF0000FF0000FF0000FFC0
:100640000000FF0000FF0000FF0000FF0000FF00AF
:1006500000FF0000FF0000FB0034F7004AF3005ADF
:10066000EE0067E90073E5007DE00086DB008FD5D2
:100670000097D0009ECB00A5C500ACBF00B2B9006A
:10068000B8B200BEAB00C4A400C99C00CE9400D395
:100690009400D39400D39400D39400D39400D394C3
:1006A00000D39400D39400D39400D39400D3940047
:1006B000D39400D39400D39400D39400D39400D364
:1006C0009400D39400D39400D39400D39400D39493
:1006D00000D39400D39400D39400D39400D3940017
:1006E000D39400D39400D39400D39400D39400D334
:1006F0009400D39400D39400D39400D39400D39463
:1007000000D39400D39400D39400D39400D39400E6
:10071000D39400D39400D39400D39400D39400D303
:100720009400D39400D39400D39400D39400D39432
:1007300000D39400D39400D39400D39400D39400B6
:10074000D39400D39400D39405D1930ACE920ECBC8
:100750009212C89115C59117C3901AC0901CBD8FF5
:100760001EBA8F20B78E22B48E24B18D25AE8D2770
:10077000AB8C28A88C2AA48C2BA18B2D9E8B2E9A17
:100780008B2F978A31938A328F8A338C8934888968
:10079000358489377F89387B893976893A71893BF5
:1007A0006C893C67893D61893E5A89405389414C37
:1007B0008A42428A43388A44298B45138B45138BDE
:1007C00045138B45138B45138B45138B45138B4575
:1007D000138B45138B45138B45138B45138B451397
:1007E0008B45138B45138B45138B45138B45138B0F
:1007F00045138B45138B45138B45138B45138B4545
:10080000138B45138B45138B45138B45138B451366
:100810008B45138B45138B45138B45138B45138BDE
:1008200045138B45138B45138B45138B45138B4514
:10083000138B45138B45138B45138B45138B451336
:100840008B45138B45138B45138B45138B45138BAE
:1008500045138B45138B45138B45138B45138B45E4
:10086000138B45138B45138B45138B45138B451306
:100870008B45138B45138B45138B45138B45138B7E
:1008800045138B45138B45138B45138B45138B45B4
:10089000138B45138B45138B45138B45138B4513D6
:1008A0008B45138B45138B45138B45138B45138B4E
:1008B00045138B45138B45138B45138B45138B4584
:1008C000138B45138B45138B45138B45138B4513A6
:1008D0008B45138B45138B45138B45138B45138B1E
:1008E00045138B45138B45138B45138B45138B4554
:1008F000138B45138B45138B45138B45138B451376
:100900008B45138B45138B45138B45138B45138BED
:1009100045138B45138B45138B45138B45138B4523
:10092000138B45138B45138B45138B45138B451345
:100930008B45138B45138B45138B45138B45138BBD
:1009400045138B45138B45138B45138B45138B45F3
:10095000138B45138B45138B45138B45138B451315
:100960008B45138B45138B45138B45138B45138B8D
:1009700045138B45138B45138B45138B45138B45C3
:10098000138B45138B45138B45138B45138B4513E5
:100990008B45138B45138B45138B45138B45138B5D
:1009A00045138B45138B45138B45138B45138B4593
:1009B000138B45138B45138B45138B45138B4513B5
:1009C0008B45138B45138B45138B45138B45138B2D
:1009D00045138B45138B45138B45138B45138B4563
:1009E000138B45138B45138B45138B45138B451385
:1009F0008B45138B45138B45138B45138B45138BFD
:100A000045138B45138B45138B45138B45138B4532
:100A1000138B45138B4513434F322050504D20000C
:100A2000090054656D706572617475726520000906
:100A30000048756D69646974792000000000002425
:100A40000027002A00000000080002010000030443
:100A50000700000000000000000000000023002646
:100A600000290000000000250028002B00040404D9
:100A70000404040404020202020202030303030347
:100A80000301020408102040800102040810200124
:100A90000204081020E000030305050406061317EE
:100AA000FEFC10FC1000020F04090BE520060020DC
:100AB000A8022109022A68E24389002209646CAB7A
:100AC00042321105231F0826A84E229A882423C9E2
:100AD0004822391C241391CAE1205193C824A289C9
:100AE000480900241488A6A74E2CA5594645F23E75
:100AF000134B131B552C0325180826A84666915046
:100B000044AA6255B154AC2A5291442436090026B5
:100B1000170826A86E5892496412F1744894C824A4
:100B200012929B697232270762686BA20228100436
:100B30002EA82A2611A988F44D241A45002910044C
:100B40002EA8262413A989F445241985002A12E821
:100B5000E4AA4E1891440E21D22112910465002B73
:100B60000CC6E8A84A283A948422002C0762E86759
:100B700082122D074668A9E2502E0742286882009B
:100B80002F140826A85A3A154BA762A958552C9D30
:100B90008AA55300300F0826A88A661915F98FA573
:100BA000898D04310B042EA84A74A088F43F3214B6
:100BB0000826A88A661915D9A6D2E1543A559D1E71
:100BC0000E0233120826A8E2413A555D258F35976B
:100BD0002636120034120826A84E2AD62AD622D249
:100BE000E970108A950035130826A8E281AC6CBA2A
:100BF0008C8A6265626962230136140826A88A66B7
:100C00001915C962D36554E4589AD84800371308B7
:100C100026A8E281489B8A55A762E9AA583A15029C
:100C200038150826A88A661915194B13936554645C
:100C30002C4D6C240039140826A88A66191539969B
:100C40002627B398589AD848003A0822A968820EF5
:100C5000233B09426968820EA3043C0D25EDB8329E
:100C600026590ACE86C2003D09C7A8B8E21DE10197
:100C70003E0E25EDB822289C0D4393A520003F137E
:100C80000826A88A661915C5D2E154597704B10C13
:100C900000402A6E2607D30E384487B33940322AE3
:100CA000914C242592124989A444522229919448B6
:100CB00007D3212407CFA107F1210441140826A856
:100CC0004E2C1EF2289149443A992E32225100426C
:100CD000140826A8A276914984DC24A68BACC84DC2
:100CE00072A90143100826A88A661915C9FA636912
:100CF000622301440F0826A8C2749115F9DF0E1370
:100D00001300450F0826A8E281ACB3C924D6F970B8
:100D100010460E0826A8E281ACB3C924D667004766
:100D2000110826A88A661915C93A3932962627036A
:100D3000480D0826A842C88F8783911F05490802DD
:100D40002A68E207024A0D0826A85AFF33B134B1D7
:100D500091004B1A0826A842569388262215598DD1
:100D6000389D126B129948692293C8064C0C0826CC
:100D7000A842ACFFE7C341004D130826A8425872B1
:100D80003AFC2091502494109147014E130826A854
:100D900042586B33992E1409454239B975144F0FD7
:100DA0000826A88A661915F98FA5898D045011089F
:100DB00026A8A276914984BC492E35B19E01510FD7
:100DC0000826A88A661915F98FA5C9C90052150801
:100DD00026A8A276914984BC492E26BD4964129961
:100DE000442853110826A88A661915C9FB4C2C4DB6
:100DF0006C2400540C0826A8E24126D6FF1B00559F
:100E00000D0826A842C8FF63696223015617082609
:100E1000A8424894C8243289486F129944562352F4
:100E2000B7CA005711072AB842C697082542895009
:100E30000EBFB80C58160826A84228914944DA2457
:100E4000B21A91636922D21B510059170826A84291
:100E500028114D44BACC88C4E9582A964EC5D229E7
:100E6000005A150826A8E2412C154BC552B1542C46
:100E7000154BC58783005B0B052EA8E250D3FF7688
:100E8000185C11072AA842AA2C954E55A7AA53D53B
:100E9000A9005D0B042EA8E210D2FF74185E09664B
:100EA00028AC4A4611095F072AE0A7E230600863D0
:100EB000F0AB42221261168925B86E5A5392C901CD
:100EC00032D34528114A84A243882262110826A8F9
:100ED00042ACD9741915F9583A4C4C006310882566
:100EE000A88A661915C93A9626361200640F082694
:100EF000A85A27CB6154E46369723265128825A829
:100F00008A661915898783593C9AD84800660F0864
:100F100026A88E66D2AC78B989F523006716082614
:100F2000A7CA72181589A589A926165B0E43E26126
:100F30006201680E0826A842ACD9741915F9470158
:100F4000690D03266842220748F42F13016A0F86B1
:100F50002AA7521D49A8FF91748850006B180826D3
:100F6000A842AC5B4D229A8854641259DB443499F0
:100F7000C824B2016C0B04266842A4FF27CA006D86
:100F80001B8E2508C3443A5846A4A29028240A89F7
:100F900042A29028240A8942A2026E0C8825A8C287
:100FA000741915F947016F0F8825A88A661915F974
:100FB000589AD8480070110826A7C2741915F95814
:100FC0003A4C4C62CD00710F0826A7CA721815F969
:100FD000589A9CCC3A720B862588E22142D41F0194
:100FE00073108725986A56913113C9349AA4360232
:100FF000740E05267846A6E93091E937D200750CC3
:101000008825A842C83F9626270376138825A8423C
:101010004894C824A289486F12598DC80477208E3D
:101020002508432824CE24B29944449388484A246E
:10103000A58A4CA28D249191882422890478148851
:1010400025A84228114D443222552C25D2445A84D9
:1010500002791B0826A7462691496422C948229393
:10106000C82432899038DD16191587007A11882531
:10107000A8E2413A9C4A8753E9707A38087B1046C7
:10108000AAA7523612EA369A0D877A1D0A7C088280
:10109000B2A7E20F057D1046AAA742B8A8D7D94843
:1010A000A8DB6826047E0848A4A9E210397F060060
:1010B00020A80280060020A80281060020A8028243
:1010C000060020A80283060020A80284060020A8AB
:1010D0000285060020A80286060020A802870600D6
:1010E00020A80288060020A80289060020A8028AFB
:1010F000060020A8028B060020A8028C060020A86B
:10110000028D060020A8028E060020A8028F06008D
:1011100020A80290060020A80291060020A80292B2
:10112000060020A80293060020A80294060020A82A
:101130000295060020A80296060020A80297060045
:1011400020A80298060020A80299060020A8029A6A
:10115000060020A8029B060020A8029C060020A8EA
:10116000029D060020A8029E060020A8029F0600FD
:1011700020A802A0060020A802A1060020A802A222
:10118000060020A802A3120826A86E589249C45A45
:101190004D36B1AE878300A4060020A802A5060044
:1011A00020A802A6060020A802A71E902528735991
:1011B0002A1E8E6944C944321A49446A34E3B0385D
:1011C0003495288E341200A8060020A802A9290E02
:1011D0002608D30E384487333944321B954C249962
:1011E000840E90D00112924C4232D54613394436C7
:1011F0009C1EE2002300AA060020A802AB10E824EF
:10120000A92E656299C46293D164A400AC06002043
:10121000A802AD060020A802AE060020A802AF0674
:101220000020A802B00964E46B6212A200B10600BB
:1012300020A802B2060020A802B3060020A802B42B
:10124000060020A802B50DE865A742C83F960ECF5C
:10125000CA00B6060020A802B7060020A802B806F9
:101260000020A802B9060020A802BA060020A802A1
:10127000BB11E824A922169B8C26B32451652212A7
:1012800001BC060020A802BD060020A802BE060080
:1012900020A802BF060020A802C0186826A84E0E8B
:1012A0008803A462F19047894C22D2C974911189B4
:1012B00002C1176826A8522A8E03C4E2218F129910
:1012C00044A493E922231205C2176826A86E481386
:1012D00009C5E2218F129944A493E922231205C380
:1012E000060020A802C4196826A84A1294C4C1E2C4
:1012F000E92247894C22D2C9749149644401C50648
:101300000020A802C6250E1AA8FA103D48E9303A76
:1013100048220749E420891C22328A6C2339602440
:10132000079C0F61A15878181EC7060020A802C8A4
:10133000146826A84E2C07880E07B2CE269358E7CD
:10134000C34100C9136826A8522A0E1E0E649D4D83
:1013500026B1CE878300CA146826A84E4A13490EC8
:1013600007B2CE269358E7C34100CB146826A84A9B
:101370001294C461870359679349ACF3E120CC0C04
:101380006332A84222A2E8FF1700CD0C6332A88680
:101390001292E8FF1700CE0D662AA84A461129EAE4
:1013A000FF2700CF0C642EA8E21015E9FF1700D02C
:1013B000060020A802D1060020A802D2136826A8A1
:1013C0004E2C070869965191FF589AD84800D312BD
:1013D0006826A8522A0ED32CA322FFB134B1910063
:1013E000D4136826A84E4A13C968965191FF589A9B
:1013F000D84800D50F0826A88A661915F98FA5893F
:101400008D04D6126826A88A4887D22CA322FFB161
:1014100034B19100D7060020A802D8060020A80207
:10142000D9116826A84E2C078884FC3F96263612D0
:1014300000DA106826A8522A0E0AF97F2C4D6C2477
:1014400000DB116826A84E4A134984FC3F962636D5
:101450001200DC106826A88A488709F97F2C4D6C99
:101460002400DD060020A802DE060020A802DF1806
:101470000826A86A589249641299443292506445E9
:10148000BE5528921100E01C0926B84E0E9043E488
:1014900028D39A924C0E90992E42895022141D42C4
:1014A0001401E1190926B852AC8E36AD29C9E40001
:1014B00099E92294082542D1214411E21B0926B85A
:1014C0004E4C14C551A63525991C20335D8412A1BC
:1014D00044283A842802E3060020A802E41B0926D7
:1014E000B84A1295C4B14D6B4A32394066BA0825E4
:1014F00042895074085104E5060020A802E6198CC0
:1015000025E86AED3091C968AA32C9E1812695C9FA
:1015100048B383893402E712E865A78A661915C9BA
:101520003A962636AA900D00E8170826A84A0E908B
:1015300003E4509A6554241E0E66F168622301E9A3
:10154000150826A852AA8E40B38C8AC4C3C12C1E8B
:101550004D6C2400EA160826A84E4A13C98134CBE4
:10156000A8483C1CCCE2D1C44602EB150826A88A48
:101570004847A6594645E2E160168F26361200EC30
:101580000D03266842229249F42F1301ED0D032624
:10159000684612114AF42F1301EE0F061E584A46F0
:1015A00011C92142FDE35002EF0D04266842328941
:1015B00083F49F4602F0060020A802F1060020A84E
:1015C00002F2156826A84A0E9003E478A159464510
:1015D0003E9626361200F3120826A852AA8E40B371
:1015E0008C8A7C2C4D6C2400F4130826A84E4A13D8
:1015F000C98134CBA8C8C7D2C44602F50F8825A834
:101600008A661915F9589AD84800F6120826A88A49
:101610004847A65946453E9626361200F70E26A99B
:10162000A84A284738D421421100F8140826A8CA2D
:101630006219D54A5E241489C9A9569A3801F9114C
:101640000826A84A0E9003E43021FF589A9C0CFA11
:101650000F0826A852AA0E15F28FA5C9C900FB10C3
:101660000826A84E4A13C94142FEB1343919FC0F6D
:101670000826A88A484714F28FA5C9C900FD0600AC
:1016800020A802FE060020A802FF060020A80200F3
:10169000000004FFFF00001C000303040403030513
:1016A0000808000007000700000A0000014C400A7B
:1016B00085255630A7CA2C04410C583456587A88D0
:1016C000C8015100420C58346E1C203944C5210019
:1016D000430A8525566C520AE604440F8824164DA9
:1016E000241999C84389484602450F8824164D326B
:1016F0001195C5238A644602460F8824166D22215F
:101700008DC525C9444602470F8824164D24118EE5
:1017100049A689484602480A84268E48178A2C0220
:10172000490A483456F8700845014A0A4834AEE47C
:10173000700887004B0A84264E684211E9024C0863
:10174000363D868526024D09632F56E41011054E5D
:101750000A632E4648728884004F073635968C629D
:10176000500C58344E30329AD8A832005109642EA9
:10177000964449A600520A85254E6CD3642D065323
:10178000094635968C221A06540B88249E58952AB1
:10179000473D04550C8824C6218E2AA58AD50056BB
:1017A0000E782C76E4208DC3A207491800570E68E6
:1017B0002C9654168AD94231A90800581188248ED3
:1017C0002918078462B6501C100C5900591088243F
:1017D00076443691A489A59214D938025A0D6834FA
:1017E0006E1C20B35864A138005B0F782CC63456A9
:1017F000A2C401714030640200000004FFFF000039
:1018000012020302030301010404050000050005A0
:101810000000000000008F2006EC7C32002A09EC5A
:101820008C248AA64A022B07ECDC688A012C07EC80
:101830007C3892002D07EC7C6487002E07EC7C54EA
:1018400092002F08ECAC2CCAA20C3008EC9C28E9C2
:1018500029023107EC9C486B023208EC0C31AA2DAE
:10186000003308EC0C31D292053408EC8CA4972D8F
:10187000013508EC8C251313093609EC1C255B2A6D
:101880000B003708EC8CAD9445003809EC8CA5B200
:101890005416003909EC8CA5B22512003A08EC0C5C
:1018A0004996240000000004FFFF00005F020302CD
:1018B0000304010204060C00FE07FE08FF017C037E
:1018C00017048C2007E6F8F94F00210AE6F8C969E9
:1018D0007730A700220CE6F8E1244BB224E713008E
:1018E000230FE6F819936890922C890629C90924D8
:1018F0000EE6F809E194741C934E630E01250DE683
:10190000F8895222859D94488701260EE6F8A96140
:10191000922561A5295372182709E6F809699D6F78
:1019200000280DE6F829611AA6E534CE1100290C2D
:10193000E6F8E16A9C16D330C7002A0EE6F8C959CA
:10194000521AC329A9E514002B0AE6F8596B8396AD
:10195000E60C2C09E6F8F941D4740C2D09E6F87967
:1019600019746E002E09E6F8F941D429002F0BE610
:10197000F859C234AC86390D300AE6F8C95AD4BFDA
:10198000E9043109E6F8C9A1DA7127320CE6F8A9B1
:101990005396868D830E03330DE6F889831A86727B
:1019A00092453B01340DE6F819422D894A8398E6A9
:1019B00004350DE6F88983920E719A64D14E360D86
:1019C000E6F8C95A980E519664D14E370CE6F8895C
:1019D000831AA6615AA700380EE6F8A9539664D177
:1019E000942559B413390EE6F8A9539664D190861C
:1019F000994E013A0BE6F8B9893A26EA14003B0BF6
:101A0000E6F8B9893A266A3A063C09E6F899C372BB
:101A10009D0C3D0BE6F8390D3A30E88C003E09E6A6
:101A2000F819E3629D053F0CE6F8A953165673308A
:101A3000A700400DE6F8A95396244B9725DE0941EF
:101A400010E6F8A9539664C9A064499664390C421B
:101A50000DE6F8894316356D51CB9013430BE6F82C
:101A6000A95396A46DD14E440BE6F8894316F52F81
:101A7000434E450EE6F8898392A64394A6830E034F
:101A8000460DE6F8898392A64394D66900470DE691
:101A9000F8A95396A425258B76024811E6F88959B2
:101AA0009225593228599225590E034909E6F8A979
:101AB00063DA71274A0BE6F8C963DA54D329004B7D
:101AC0000FE6F8895912553231C9A25A0E034C0A51
:101AD000E6F88969AF830E034D0FE6F8895962E98C
:101AE0009664499664390C4E10E6F889599225524D
:101AF000D249C9922C87014F0FE6F8A95396644941
:101B000096644916ED04500EE6F88943942559323F
:101B100044699D06510FE6F8A9539664499674CA24
:101B2000941C065210E6F88943942559324449160C
:101B3000D57218530DE6F8A95396C47392453B012C
:101B4000540AE6F8898396F64E015510E6F889594D
:101B500092255992255992453B015610E6F889592C
:101B600092255992454996843905570FE6F88959C7
:101B700092255992257D4A72025810E6F8895992A9
:101B800045495889B224CB6100590DE6F88959922C
:101B9000454998B653005A0BE6F889831A761D74A6
:101BA000185B0AE6F8E12DEDEB8E005C0BE6F88998
:101BB000711A57E31C065D09E6F8E1B5DF76045EAD
:101BC0000BE6F809611265395F005F08E6F8F9B7BE
:101BD00041016008E6F8E1763E01610DE6F8B9CD15
:101BE000D19064D190C300620FE6F889693A4459F4
:101BF00092255932E404630BE6F8B94D599266D147
:101C00004E6410E6F859D26848B2244BB268C861F5
:101C100000650BE6F8B94D593244F14E660BE6F813
:101C2000C95A541CD33A09670EE6F8B94D599225A2
:101C30005934A4D1046810E6F889693A44599225C8
:101C40005992E53000690AE6F8C939A636EE046A09
:101C50000BE6F859724CED5493006B0EE6F8896967
:101C60002D89A22DAAE530006C09E6F8A96A8F3B00
:101C7000016D0BE6F8392951D2FF0E036E0EE6F81E
:101C80003925929464499664390C6F0CE6F8B94D85
:101C900059922559B413700FE6F8390D51966449DD
:101CA000960C519A02710EE6F8B90D4996644916E0
:101CB0000D6905720CE6F839259294A4751A007323
:101CC0000BE6F8B90D493C27434E740CE6F8C96998
:101CD000366869598701750EE6F839654996644991
:101CE00064C96100760EE6F839654996645112E6DA
:101CF0001400770CE6F839654996F429C909780D7E
:101D0000E6F83965511256A22C8701790DE6F839AB
:101D1000654996645112B6027A0BE6F8390D62E312
:101D2000A0C3007B0CE6F829615A8CD3728E007C2C
:101D300009E6F809697F87007D0BE6F8E16A394C0E
:101D40008B39067E0AE6F8B94549A79C15000000C4
:101D500004FFFF0000003F26E42E11241FBECFEF3A
:101D6000D8E0DEBFCDBF26E0ACE2B2E001C01D92FC
:101D7000AD34B207E1F712E0A0E0B1E0E4E3FCE645
:101D800002C005900D92AC32B107D9F71EE0CCEA43
:101D9000DEE004C02197FE010E943731CB3AD10723
:101DA000C9F70E9430280C940D360C94000066236D
:101DB00029F06A3019F0862F90E008958FEF9FEF99
:101DC0000895CF92DF92EF92FF920F931F93CF93DC
:101DD000DF93EC01842F8770E1E0F0E0082E01C072
:101DE000EE0F0A94EAF73E2F7E0191E7E90EF11C0F
:101DF000D7019C9110E0923018F41E2F913029F1F8
:101E000050E0487FE8ADF9ADC880D980D601509642
:101E10009C91949F6001959FD00C11246C0D7D2D99
:101E2000711DDF01A60FB71F011115C08C91812B09
:101E300083278D932150D1F7DF91CF911F910F917F
:101E4000FF90EF90DF90CF90089530E0D9CF110F41
:101E5000330F222389F39C91912B93279C938F5FBF
:101E6000877021508111F3CF9CADA90FB11DF701EF
:101E70009081923028F4913009F031E011E0E9CFFF
:101E800031E0E7CF80E0089580E008950F93DC0112
:101E9000562F222371F1FC01EB5BFF4F8081481725
:101EA00040F131968081481720F532979081319723
:101EB0003081260F2617D8F46917C0F42FEF290FA9
:101EC0003217B8F4632F351708F4652F291708F473
:101ED000922F292F261BD696ED91FC91D79704803F
:101EE000F581E02D00E0CD01099503C0532F59176E
:101EF00038F30F9108959091A105992361F0899F7E
:101F000090011124832F969FB0011124672F949F75
:101F1000A0011124452FE091A7052091A205309141
:101F2000A3059091A405E91721F0E20FF32FF11D0D
:101F30001082E091A405E20FF32FF11D8083E09160
:101F4000A505E20FF32FF11D60838091A605280FF0
:101F5000311DF901408308958CBD9DBD08959B01FD
:101F6000DC011896ED91FC9141E067E10994833022
:101F700081F028F4813099F08230A9F008958730FB
:101F8000A9F08830C9F08430B1F4809180008F7D51
:101F900003C0809180008F7780938000089584B57E
:101FA0008F7784BD089584B58F7DFBCF8091B0007D
:101FB0008F778093B00008958091B0008F7DF9CF26
:101FC000CF93DF93282F30E0F901EB5BF54F84913D
:101FD000F901EF57F54FD491F901E359F54FC49149
:101FE000CC23A1F081110E94B70FEC2FF0E0EE0F8F
:101FF000FF1FE75AF54FA591B491EC91ED2381E0D5
:1020000090E009F480E0DF91CF91089580E090E0C6
:10201000FACF1F93CF93DF93282F30E0F901EB5BCA
:10202000F54F8491F901EF57F54FD491F901E35938
:10203000F54FC491CC23A9F0162F81110E94B70F40
:10204000EC2FF0E0EE0FFF1FED59F54FA591B49185
:102050008FB7F894EC91111108C0D095DE23DC9372
:102060008FBFDF91CF911F910895DE2BF8CFEF92B4
:10207000FF920F931F93CF93DF93909171059F3F32
:1020800071F48EBD00000DB407FEFDCFCEB58C2FD0
:10209000DF91CF911F910F91FF90EF900895D82F6E
:1020A000C0E007E010E0EE24E394F12CCC0F60E0F8
:1020B000809171050E940910B701002E01C0660FC2
:1020C0000A94EAF76D2380916F050E94091061E080
:1020D000809171050E940910809170050E94E00FA7
:1020E000892B09F0C1600150110900F7D0CFCF93BF
:1020F000DF9390E0FC01EF57F54F24918359954F02
:10210000FC0184918823C9F090E0880F991FFC019D
:10211000E55CF54FA591B491FC01ED59F54FC591E2
:10212000D49161110DC09FB7F8948C9120958223B2
:102130008C938881282328839FBFDF91CF910895B6
:10214000623051F49FB7F8943C91822F809583239D
:102150008C93E8812E2BEFCF8FB7F894EC912E2B38
:102160002C938FBFEACF3FB7F894809121039091D1
:102170002203A0912303B091240326B5A89B05C098
:102180002F3F19F00196A11DB11D3FBFBA2FA92FF6
:10219000982F8827BC01CD01620F711D811D911DF3
:1021A00043E0660F771F881F991F4A95D1F708955E
:1021B0000F931F93CF93DF93CDB7DEB729970FB659
:1021C000F894DEBF0FBECDBF0E94B3100091A805EA
:1021D0001091A9052091AA053091AB05601B710BE8
:1021E000820B930B623371058105910568F3F894B6
:1021F00080919E0590919F059A838983A091A20565
:10220000B091A305FD0131968C91898780919A0543
:10221000A091AC05B091AD05882309F42EC11B82B5
:10222000AB32B10509F072C09BB18091AE05982B1D
:1022300098879BB1809589238F838F818C83898533
:1022400087FF02C088858C8358856F8149853C81D2
:102250002B8189819A815BB9262F3BB900C046FD4D
:10226000252F6BB900C05BB9362F2BB900C045FDD7
:10227000352F6BB900C05BB9262F3BB900C044FDB8
:10228000252F6BB900C05BB9362F2BB900C043FDB9
:10229000352F6BB900C05BB9262F3BB900C042FD9A
:1022A000252F6BB900C05BB9362F2BB900C041FD9B
:1022B000352F6BB900C05BB9262F3BB900C040FD7C
:1022C000252F6BB901975BB9362F2BB9419147FD8B
:1022D000352F6BB901F649873C832B839A83898319
:1022E00078940E94B3106093A8057093A905809319
:1022F000AA059093AB0529960FB6F894DEBF0FBEE2
:10230000CDBFDF91CF911F910F910895A532B105F7
:1023100009F058C095B18091AE05982B988795B17A
:10232000809589238F838F818C83898587FF02C065
:1023300088858C8358856F8149853C812B81898173
:102340009A8155B9262F35B900C046FD252F65B9AC
:1023500000C055B9362F25B900C045FD352F65B9E8
:1023600000C055B9262F35B900C044FD252F65B9E9
:1023700000C055B9362F25B900C043FD352F65B9CA
:1023800000C055B9262F35B900C042FD252F65B9CB
:1023900000C055B9362F25B900C041FD352F65B9AC
:1023A00000C055B9262F35B900C040FD252F65B9AD
:1023B000019755B9362F25B9419147FD352F65B99C
:1023C00001F689CF989709F08BCF98B18091AE052F
:1023D000982B988798B1809589238F838F818C83E0
:1023E000898587FF02C088858C8358856F814985E0
:1023F0003C812B8189819A8158B9262F38B900C038
:1024000046FD252F68B900C058B9362F28B900C03D
:1024100045FD352F68B900C058B9262F38B900C01E
:1024200044FD252F68B900C058B9362F28B900C01F
:1024300043FD352F68B900C058B9262F38B900C000
:1024400042FD252F68B900C058B9362F28B900C001
:1024500041FD352F68B900C058B9262F38B900C0E2
:1024600040FD252F68B9019758B9362F28B94191F9
:1024700047FD352F68B901F62ECF9C918091AE05AE
:10248000982B98879C91809589238F838F818E8349
:1024900088E08D8358856F8149853D812E818981B2
:1024A0009A815C9347FD252F2C93262F3A9531F086
:1024B000441F6C9300C000C000C0F3CF6C930000B9
:1024C00038E04191019769F7B093AD05A093AC0551
:1024D00049873D832E8302CF8F929F92AF92BF9206
:1024E000CF92DF92EF92FF926B017C010E94B310BA
:1024F0004B015C01C114D104E104F104B9F00E9464
:10250000B310681979098A099B09683E73408105EF
:10251000910580F321E0C21AD108E108F10888EEA4
:10252000880E83E0981EA11CB11CE4CFFF90EF90B1
:10253000DF90CF90BF90AF909F908F9008950895B7
:102540000895EF92FF920F931F93CF93DF938C0127
:102550007B01D0E0C0E0F701EC0FFD1F6491662322
:1025600061F0D801ED91FC910190F081E02DC8015E
:102570000995892B11F02196EECFCE01DF91CF91F5
:102580001F910F91FF90EF900895AF92BF92CF925D
:10259000DF92EF92FF920F931F93CF93DF936C0123
:1025A0007B018B01040F151FEB015E01AE18BF0804
:1025B000C017D10759F06991D601ED91FC910190B6
:1025C000F081E02DC6010995892B79F7C501DF91CE
:1025D000CF911F910F91FF90EF90DF90CF90BF9020
:1025E000AF900895FC01538D448D252F30E0842F4A
:1025F00090E0821B930B541710F0CF96089501972B
:102600000895FC01918D828D981761F0A28DAE0F17
:10261000BF2FB11D5D968C91928D9F5F9F73928F9E
:1026200090E008958FEF9FEF0895FC01918D828DCA
:10263000981731F0828DE80FF11D858D90E0089597
:102640008FEF9FEF0895FC01918D228D892F90E0EF
:10265000805C9F4F821B91098F739927089587E7AC
:1026600093E00E94231321E0892B09F420E0822FBC
:10267000089580E090E0892B29F00E942F138111AA
:102680000C9400000895FC01A48DA80FB92FB11D72
:10269000A35ABF4F2C91848D90E001968F73992798
:1026A000848FA689B7892C93A089B1898C91837076
:1026B00080648C93938D848D981306C00288F3896F
:1026C000E02D80818F7D80830895EF92FF920F939C
:1026D0001F93CF93DF93EC0181E0888F9B8D8C8DCE
:1026E00098131AC0E889F989808185FF15C09FB7C2
:1026F000F894EE89FF896083E889F9898081837085
:10270000806480839FBF81E090E0DF91CF911F9133
:102710000F91FF90EF900895F62E0B8D10E00F5F54
:102720001F4F0F731127E02E8C8D8E110CC00FB62A
:1027300007FCFACFE889F989808185FFF5CFCE01C2
:102740000E944313F1CFEB8DEC0FFD2FF11DE35AE7
:10275000FF4FF0829FB7F8940B8FEA89FB89808145
:102760008062CFCFCF93DF93EC01888D8823B9F0BF
:10277000AA89BB89E889F9898C9185FD03C080818C
:1027800086FD0DC00FB607FCF7CF8C9185FFF2CF09
:10279000808185FFEDCFCE010E944313E9CFDF9109
:1027A000CF910895DC011A96ED91FC9130E020E084
:1027B0000994DC011696ED91FC9130E020E040E0B8
:1027C00069E10994DC011696ED91FC9130E020E07E
:1027D00040E068E109949A01DC011696ED91FC91C4
:1027E000462F67E10994EF92FF920F931F93CF93C7
:1027F000DF931F92CDB7DEB77C018B01D8016C91BE
:10280000673129F150F46531A0F40F90DF91CF9139
:102810001F910F91FF90EF9008956A3118F16E3F6C
:10282000A1F7F8014181498369E2C7010E94D213EF
:102830000BC0F80141814983D7011696ED91FC91B7
:1028400030E020E0C70109950E5F1F4FD7CFF80198
:1028500081818983AE014F5F5F4F61E0C7010E94B4
:10286000EB13F2CF0F5F1F4FD7011696ED91FC913E
:1028700030E020E040E0C7010995C0CF462FDC01E1
:102880001696ED91FC9130E020E066E10994462F28
:10289000DC011696ED91FC9130E020E065E10994B1
:1028A000EF92FF920F931F93CF93DF93EC01042FCE
:1028B00079016D3009F446C050F46B30C9F16930CC
:1028C00009F49FC06A3009F465C080E046C06E30EC
:1028D00009F452C06F3099F70E94E213F701138197
:1028E000110F110F110F6C89160F60E4CE010E94B9
:1028F0004714612F62956F706061CE010E9447148A
:10290000612F6F70CE010E943E14F7016481606BED
:10291000CE010E943E14F701408151816281660F11
:10292000660F660FCE010E94EB130150A1F72EC077
:1029300061E671E0442311F06CE571E0CE010E9484
:10294000F3130AC0411110C065E571E00E94F31352
:10295000E881F98182898C8B81E0DF91CF911F9191
:102960000F91FF90EF9008956EE471E00E94F313D1
:10297000E881F9818389EFCF0E94E21361E8CE01FB
:102980000E944714602FCE010E943E14CE010E9487
:10299000D913E2CFEA85FB8530E020E040E068E231
:1029A000CE010995EE81FF8130E020E040E064E156
:1029B000CE01099541E06BE4CE010E94D213E8817B
:1029C000F981448169E2CE010E94D21340E06BE4B8
:1029D000CE010E94D213E881F981448169E2CE01DF
:1029E0000E94D21341E06BE4CE010E94D213E88131
:1029F000F981458169E2CE010E94D21366E671E059
:102A00009DCF8BE991E0998388831C8AA5CFDC0157
:102A10001896ED91FC9130E020E040E069E10994E6
:102A2000DC011896ED91FC9130E020E040E068E197
:102A30000994CF93DF931F92CDB7DEB76983BE01B0
:102A40006F5F7F4F0E94AF0F0F90DF91CF9108957E
:102A5000EF92FF921F93CF93DF93EC01162F7A0131
:102A60000E94101560E4CE010E941915E885F985D1
:102A70009701412F67E1CE010995CE01DF91CF91FA
:102A80001F91FF90EF900C940715EF92FF921F9308
:102A9000CF93DF93EC01142F7901663181F138F483
:102AA000643109F44BC0653179F080E022C06831AF
:102AB000C9F150F16931C9F78091F402882391F18D
:102AC000CE010E9407152EC08091F402882319F0D0
:102AD000CE010E940715CE010E94101560E0CE01C4
:102AE0000E941915612FCE010E94191581E0809373
:102AF000F402DF91CF911F91FF90EF900895642F22
:102B00000E94191581E0F5CF8091F402882319F015
:102B1000CE010E940715A701193138F4612FCE01AB
:102B20000E9428151092F402EDCF68E1CE010E94B8
:102B30002815185188E1E80EF11CEDCF8E898F3FE2
:102B400011F488E78E8BE885F9859701412F64E1C0
:102B5000CE01DF91CF911F91FF90EF900994FC017E
:102B60006623D9F16A30C9F1808D811125C06C3F8F
:102B700048F085E0808F617070E0738B628B2EEF80
:102B80003FEF29C0683F20F084E0808F6370F4CF6E
:102B9000603F20F083E0808F6770EECF603E20F0D2
:102BA00082E0808F6F70E8CF262F30E0603C98F095
:102BB00081E0808F6F71E0CF8150808F22893389CF
:102BC00096E0220F331F9A95E1F76F73262B338B14
:102BD000228B8111D4CFC90108952FEF3FEFFBCF96
:102BE0000F93DC01DE963C91DE97431BD496ED916A
:102BF000FC9109950F910895FC01ED5BFF4F108248
:102C00003196DC01AF5BBF4F2C9120833196DC0104
:102C1000DF962C9120833196805C9F4FDC018C9154
:102C200080830895CF93DF93FC01A081B18182ADB1
:102C3000982F990F990F990F95AF50969C91509797
:102C4000903208F09FE1990F990F990F94AF23AD3F
:102C5000922F990F990F990F96AF51963C915197DA
:102C6000682F620F7727771F3617170614F4832F04
:102C7000821B97AFEF01C05CDF4F880F880F880F72
:102C8000890F8883219680EF888354968D919C913B
:102C90005597813F910508F48883EE5BFF4F569668
:102CA0008C918083DF91CF910895FC01E95BFF4F08
:102CB00020813181295E3F4F6F3F710509F010F58A
:102CC00061367105A0F086599F4FFC01808191818A
:102CD000280F391FC9010196FC014491442391F04A
:102CE000F90144914617170641F40196089561349D
:102CF000710580F388599F4FE8CFFC018491280F1C
:102D0000311DE8CF90E080E00895DC0118964C91E9
:102D10001897ED91FC911197249130E0042E02C098
:102D2000359527950A94E2F7842F860F883068F04E
:102D300031961196FC93EE93E49198E0941B01C0B8
:102D4000EE0F9A95EAF72E2B885018968C938FEFFA
:102D50009FEF01C0880F6A95EAF780958223089556
:102D60000F931F93CF93DF938C01EC01C55BDF4F73
:102D7000798368831886FC01E55AFF4F6081CE0194
:102D80000E9485168E83F801E45AFF4F6081CE01C0
:102D90000E9485168F83F801EF58FF4F90819A8724
:102DA00081E0911180E08B87DF91CF911F910F918E
:102DB0000895CF93C62F0E948516C15021E030E0C0
:102DC00001C0220FCA95EAF7821BCF9108950F9395
:102DD0001F93CF93DF93109223061092EA058C0184
:102DE000D0E0C0E0F80161918F01E091D405F0914D
:102DF000D50582ED95E009958F3F980749F18E3F03
:102E00002FEF920779F3BC0182ED95E00E945516F1
:102E10000097E1F0BC0182ED95E00E94B016609150
:102E20002F068DE196E00E94D916809341066091AD
:102E300030068DE196E00E94D916609131068DE151
:102E400096E00E94D916D82FC80FCCCF80E0FBCFD8
:102E500080912306882329F090914106890FC80F9D
:102E6000CD1B8C2FDF91CF911F910F910895FC0105
:102E7000E60FF11D849190E0982F88273196E49118
:102E80008E0F911D0895CF93DF93209119063091F5
:102E90001A062817390709F488C0EC0190931A061E
:102EA00080931906FC018491809329063196E49160
:102EB000E0932A06FE013296E491E0932B06FE0190
:102EC0003396E491E0932C06FE013496E491E0936E
:102ED0002D06FE013596E491E0932E06FE0136960E
:102EE000E491E0932F06FE013796E491E0933006DB
:102EF000FE013896E491E0933106FE013996E491A3
:102F0000E0933206FE013A96E491E0933306FE0127
:102F10003B96E491E0933406FE013C96E491E09305
:102F20003506FE013D96E491E0933606FE013E969D
:102F3000E491E0933706FE013F96E491E093380672
:102F4000FE017096E491E093390661E1CE010E94A2
:102F5000371790933B0680933A0663E1CE010E94B7
:102F6000371790933D0680933C0680911906909107
:102F70001A06892BD1F08091360680933F06409146
:102F800037064093400690913E06992371F09130A8
:102F900079F490913806891714F490933F06809144
:102FA0003906841714F480934006DF91CF91089579
:102FB0003091330620913506082E000C990B622FB4
:102FC000022E000C770B630F711D37FD7A95861763
:102FD00097071CF4320F30933F06241734F72093E1
:102FE0004006E3CFCF93DF93EC016BAFEEA9FFA9CF
:102FF0000190F081E02D0995EEA9FFA90280F381EF
:10300000E02DCE01DF91CF910994AF92BF92CF9284
:10301000DF92EF92FF920F931F93CF93DF9300D035
:1030200000D01F92CDB7DEB78C01DC01DA96AC90F0
:10303000DA97DB96EC90DB97ED91FC91B188FE2C52
:10304000D12CC12CD801ED91FC9111978089D89693
:103050002D913C911C82FD828B83B8E08B9FC00137
:1030600011248C9DA0018D9D500D9C9D500D11240F
:10307000240F351F3A832983D8011496ED91FC91D2
:103080009E012F5F3F4F41E06FE0C8010995F39427
:103090008F2D8E198A1528F4BFEFCB1ADB0AFB148B
:1030A00088F20F900F900F900F900F90DF91CF91BB
:1030B0001F910F91FF90EF90DF90CF90BF90AF9056
:1030C00008950F931F93CF93DF938C01C62F642F26
:1030D000CC32E8F4CA3208F041C0C83271F1C932CA
:1030E00009F442C080E0C034D0F1CF73F801EC0F96
:1030F000F11D868D8F3F91F1C031E0F00E94E00F0D
:1031000021E0892B09F420E0F801218F27C0CD327E
:1031100089F140F384EB8C0F823020F7CF73C00F1E
:10312000D12FD11D8E8D41112CC061E00E947710EE
:1031300060E08E8D0E94091011C0025E1F4FD0E02A
:10314000F80181918F018F3F31F061E0D03108F0BB
:1031500062E00E947710DF5FD63191F781E0DF9166
:10316000CF911F910F91089570E090E080E00E9450
:103170006C12F4CF433090F786E090E00197F1F7BE
:10318000EDCF62E00E947710E9CF2091FC023091F0
:10319000FD022817390771F49091FA028091FB0221
:1031A000981741F0E091FA02F0E0EC54FD4F808175
:1031B00090E008958FEF9FEF08950895EF92FF92AA
:1031C0000F931F93CF93DF93DC015C96ED90FC90FF
:1031D0005D97E114F10479F481E090E013969C93FB
:1031E0008E93129790E080E0DF91CF911F910F9125
:1031F000FF90EF9008955196ED91FC915297509663
:103200008C915097982F90950FB75E962C915E9762
:10321000122F127021FD6095F8942081112319F16D
:10322000282B2083E7012197F1F728E0462F50E073
:10323000308160FF1AC0382B3083E7012197F1F706
:10324000BA0175956795215089F7112381F0808126
:10325000892380830FBF5C968D919C910197F1F734
:1032600081E090E0C1CF2923DCCF3923E5CF9081E5
:10327000892BEFCF2091FC023091FD0228173907EE
:1032800071F48091FB022091FA0290E0805C9F4FE4
:10329000821B910960E470E00E94F930089590E08B
:1032A00080E008952091FC023091FD022817390733
:1032B000B9F49091FA028091FB02981789F0E0919D
:1032C000FA02F0E0EC54FD4F80812091FA0230E0E8
:1032D0002F5F3F4F2F7333272093FA0290E008951A
:1032E0008FEF9FEF08958F929F92AF92BF92CF92F0
:1032F000DF92EF92FF921F93CF93DF93FC0115AD06
:10330000112389F1EC01912C812CC12CD12C760157
:10331000A12EB12C8A149B0474F4299139914991FE
:103320005991C701B6010E943E316B017C01FFEF4C
:103330008F1A9F0AEFCF612F70E090E080E00E942B
:10334000652F9B01AC01C701B6010E94AA31DF9134
:10335000CF911F91FF90EF90DF90CF90BF90AF90F3
:103360009F908F90089560E070E0CB01F0CF0895BA
:1033700020919102260F3327331F21323105ECF4BF
:1033800020916D03FC0190E080E0243069F082E040
:103390000895A09191022191AC014F585D4FA40F67
:1033A000B52FB11D2C930196861798F38091910249
:1033B000680F6093910280E0089581E00895109273
:1033C0006D0381E080934C031092470361E082E13A
:1033D0000E94091061E083E10E940910E9EBF0E02E
:1033E00080818E7F808380818D7F808380E2809347
:1033F000B80085E48093BC000895CF93DF9391E0FB
:10340000909370028823B9F0C091B800D091BA00AF
:103410008091BC008A7B8093BC0060E082E10E94C6
:10342000091060E083E10E9409100E94DF19D09327
:10343000BA00C093B800DF91CF910895CF92DF9288
:10344000EF92FF920F931F93CF93DF93D82FC62F46
:10345000613208F098C00E94B3106B017C0180912A
:103460006D0381116BC081E080936D0380934C03E9
:103470009FEF90934B0310924A039C0F9093490344
:103480008093480380914803DD0FD82BD0934803E5
:1034900080914703813009F078C0109247030E9461
:1034A000B3106B017C01809148038093BB00809135
:1034B0006F0390917003A0917103B0917203892BF7
:1034C0008A2B8B2BA1F00E94B31000916F031091F7
:1034D000700320917103309172036C197D098E097C
:1034E0009F09061717072807390708F448C0809175
:1034F000BC0083FDD8CF85EC8093BC000E94B31044
:103500006B017C0180916D03813009F440C0809192
:103510004A038C1710F4C0914A03E7E2F3E0ADE4EC
:10352000B3E080E08C1355C08C2FDF91CF911F91B9
:103530000F91FF90EF90DF90CF90089580916F03EF
:1035400090917003A0917103B0917203892B8A2B23
:103550008B2B09F484CF0E94B31000916F0310915C
:10356000700320917103309172036C197D098E09EB
:103570009F09061717072807390708F070CF8091B1
:103580006E030E94FD19C0E0CFCF85EEB5CF8091CC
:103590006F0390917003A0917103B0917203892B16
:1035A0008A2B8B2B09F4AECF0E94B31000916F03CE
:1035B0001091700320917103309172036C197D0991
:1035C0008E099F09061717072807390708F09ACFB1
:1035D000D6CF91919D938F5FA5CFE09126038091E7
:1035E0002503E81730F4F0E0E35BFC4F808190E0C6
:1035F00008958FEF9FEF0895909126038091250302
:103600002FEF3FEF981748F4E92FF0E0E35BFC4F12
:10361000208130E09F5F90932603C9010895809137
:10362000250390912603891B990B0895CF92DF9271
:10363000EF92FF920F931F93CF93DF937C01CB0107
:103640008A0120917603222389F0EB016B01C40EDD
:10365000D51ECC15DD0569F06991D701ED91FC917E
:103660000190F081E02DC7010995F3CF642F0E94EE
:10367000B819C801DF91CF911F910F91FF90EF9082
:10368000DF90CF900895CF93DF931F92CDB7DEB731
:103690006983209176032223F9F02091730320326D
:1036A00058F021E030E0FC013383228390E080E099
:1036B0000F90DF91CF91089580917403E82FF0E08F
:1036C000E05BFD4F998190838F5F809374038093BB
:1036D000730381E090E0ECCF61E0CE0101960E949F
:1036E000B819F7CFCF92DF92EF92FF920F931F930B
:1036F000CF93DF93D091730381E0D13208F09CC067
:10370000C09175030E94B3106B017C0180916D0321
:1037100081116CC082E080936D0381E080934C0343
:103720008FEF80934B0310924A03D0934903A0E597
:10373000B2E0E7E2F3E080E0D8138DC010924803D6
:1037400080914803CC0FC82BC09348038091470356
:10375000813009F084C0109247030E94B3106B01BE
:103760007C01809148038093BB0080916F0390910E
:103770007003A0917103B0917203892B8A2B8B2B5C
:10378000A1F00E94B31000916F031091700320917B
:103790007103309172036C197D098E099F09061718
:1037A00017072807390708F442C08091BC0083FD41
:1037B000D8CF85EC8093BC000E94B3106B017C01D4
:1037C00080916D03823009F44CC080914B038F3F90
:1037D00009F469C080914B03803209F466C080917E
:1037E0004B03803309F463C084E026C080916F03EB
:1037F00090917003A0917103B0917203892B8A2B71
:103800008B2B09F483CF0E94B31000916F031091AA
:10381000700320917103309172036C197D098E0938
:103820009F09061717072807390708F06FCF8091FF
:103830006E030E94FD1985E01092740310927303C9
:1038400010927603DF91CF911F910F91FF90EF902F
:10385000DF90CF9008959D9191938F5F6DCF85EE0E
:10386000A9CF80916F0390917003A0917103B091E3
:103870007203892B8A2B8B2B09F4A2CF0E94B310E1
:1038800000916F03109170032091710330917203C6
:103890006C197D098E099F09061717072807390734
:1038A00008F08ECFC4CF80E0C7CF82E0C5CF83E0E1
:1038B000C3CFCF93DF93EC01962F683109F445C055
:1038C000B901993130F4943199F0973159F080E091
:1038D00006C0993109F45BC09032C9F781E0DF91ED
:1038E000CF91089550E084E194E00E94161BF6CF3A
:1038F0008C859D85AE85BF85892B8A2B8B2B71F49A
:10390000E881F981A585B0E020EA36E841E050E0A1
:103910000E9484306C877D878E879F871092260354
:103920001092250310927403109273030E94DF1902
:103930008FE992E19093F7028093F60280EA92E198
:103940009093F9028093F802C9CF2C853D854E856E
:103950005F8560E072E18AE790E00E940D312051BE
:103960003109410951095695479537952795209377
:10397000B8008E8990E09595879591E090937603B5
:10398000809375031092740310927303A7CF84E1A0
:1039900094E00E94721BA2CFCF93DF93D82FC62F43
:1039A00080916E058F3F59F580915B0590915C0584
:1039B0002091650531E030937603209375031092D2
:1039C000740310927303DC01ED91FC910190F0817E
:1039D000E02D6D2F099580915B0590915C05DC01D0
:1039E000ED91FC910190F081E02D6C2F0995809173
:1039F0005B0590915C05DF91CF910C94721B8091D7
:103A000071058F3F21F481E590E00E94AC0F60E0EA
:103A100080916E050E9409108D2F8F770E943710BC
:103A20008C2F0E94371061E080916E05DF91CF915D
:103A30000C9409104F925F926F927F92AF92BF9257
:103A4000CF92DF92EF92FF920F931F93CF93DF936A
:103A50006B017C01EA010E942332FE0150E040E04C
:103A6000808191816817790728F082819381861778
:103A7000970740F44F5F5F4F34964630510581F70A
:103A80004FEF5FEF4F3F540709F454C0440F551FE9
:103A9000440F551FFA01EA5CFE4F00811181C40FEB
:103AA000D51FA880B98062817381601B710B90E083
:103AB00080E00E94652F2B013C016A817B816A199D
:103AC0007B0990E080E00E94652F9B01AC01C3015F
:103AD000B2010E94AA312B013C01B50190E080E0C7
:103AE0000E94652F9B01AC01C701B6010E943D31C8
:103AF0009B01AC01C301B2010E94C62F6B017C0186
:103B0000B80190E080E00E94652F9B01AC01C701E5
:103B1000B6010E943E31DF91CF911F910F91FF902E
:103B2000EF90DF90CF90BF90AF907F906F905F90BD
:103B30004F90089560E070E08AEF93E4ECCFCF926D
:103B4000DF92EF92FF920F931F93CF93DF936C015D
:103B5000EB017B01E40EF51E10E000E0CE15DF0561
:103B600061F06991D601ED91FC910190F081E02D19
:103B7000C6010995080F191FF1CFC801DF91CF9138
:103B80001F910F91FF90EF90DF90CF9008950895CF
:103B900090E080E008958F929F92AF92BF92CF9273
:103BA000DF92EF92FF9280916E058F3F09F0F5C092
:103BB00080915B0590915C052091650531E0309323
:103BC0007603209375031092740310927303DC0143
:103BD000ED91FC910190F081E02D6AEF09958091C3
:103BE0005B0590915C050E94721B63E08091650506
:103BF0000E941E1A109226038093250380915B0574
:103C000090915C05DC01ED91FC910284F385E02D3F
:103C100009954C01990FAA08BB08BA2CA92C982C1D
:103C2000882480915B0590915C05DC01ED91FC910D
:103C30000284F385E02D0995092E000CAA0BBB0B1D
:103C4000882A992AAA2ABB2ABA2CA92C982C88241B
:103C500080915B0590915C05DC01ED91FC91028403
:103C6000F385E02D0995092E000CAA0BBB0B6C0106
:103C70007D01C828D928EA28FB2860E070E080ECA4
:103C80009FE7C114D104B0E8EB06F10409F47CC04D
:103C90008091760590917705B0E0A0E08D2C9E2C68
:103CA000AF2CBB24A7FCBA94881A990AAA0ABB0AAB
:103CB00037E0F594E794D794C7943A95D1F7880FF5
:103CC000991FAA1FBB1FA7019601281B390B4A0B7E
:103CD0005B0BA0917805B09179050E942F316B01A3
:103CE0007C015BE0F594E794D794C7945A95D1F79B
:103CF000A5019401C501B4010E94D5309B01AC011E
:103D00006CE055954795379527956A95D1F7A09121
:103D10007A05B0917B050E942F319B01AC017EE0BA
:103D200055954795379527957A95D1F72C0D3D1DDB
:103D30004E1D5F1D8091720590917305A0917405D1
:103D4000B0917505280F391F4A1F5B1F20936A0524
:103D500030936B0540936C0550936D05A5E0B0E082
:103D60000E94843060587F4F8F4F9F4F672F782F6E
:103D7000892F992787FD9A950E94672F20E030E0D0
:103D800048EC52E40E94AA31FF90EF90DF90CF9070
:103D9000BF90AF909F908F900895809171058F3F55
:103DA00021F481E590E00E94AC0F60E080916E0507
:103DB0000E9409108AEF0E94371080E00E9437109D
:103DC00090E0B0E0A0E0CC24D82EE92EFA2E80E0DE
:103DD0000E943710C82AFE2CED2CDC2CCC2480E06D
:103DE0000E943710C82A61E080916E050E94091078
:103DF00044CFCF93C82F80916E058F3FA9F5809156
:103E00005B0590915C052091650531E03093760368
:103E1000209375031092740310927303DC01ED91EB
:103E2000FC910190F081E02D6C2F099580915B054C
:103E300090915C050E94721B61E0809165050E9473
:103E40001E1A109226038093250380915B059091A2
:103E50005C05DC01ED91FC910284F385E02D099570
:103E6000C82F8C2FCF910895809171058F3F21F439
:103E700081E590E00E94AC0F60E080916E050E94A9
:103E800009108C2F0E94371080E00E943710C82F35
:103E900061E080916E050E940910E3CFCF93DF931C
:103EA000C82F80916E058F3F09F046C080915B0559
:103EB00090915C052091650531E030937603209365
:103EC00075031092740310927303DC01ED91FC9161
:103ED0000190F081E02D6C2F099580915B05909108
:103EE0005C050E94721B62E0809165050E941E1AAB
:103EF000109226038093250380915B0590915C05C9
:103F0000DC01ED91FC910284F385E02D0995C82F29
:103F100080915B0590915C05DC01ED91FC91028440
:103F2000F385E02D099520E03C2FE901C82BD92B22
:103F3000CE01DF91CF910895809171058F3F21F4DB
:103F400081E590E00E94AC0F60E080916E050E94D8
:103F500009108C2F0E94371080E00E943710C82F64
:103F600080E00E943710DC2FC82F61E080916E0541
:103F70000E940910DDCF0E944E1F9827892798279D
:103F800008952F923F924F925F926F927F928F92FD
:103F90009F92AF92BF92CF92DF92EF92FF920F93D8
:103FA0001F93CF93DF938C01D62FC42F7901FC018F
:103FB000E75BFF4F0190F081E02D0995F801E35B8D
:103FC000FF4FD08331968C0F8083B701C8010E94C8
:103FD0005516009709F4C7C0E801C55BDF4FBC0167
:103FE000C8010E94B016F801EE5AFF4F60803B9660
:103FF0006081CE010E94D916F82EF801E25AFF4FD7
:104000006081CE010E94D916E82EF801E15AFF4FD7
:104010006081CE010E94D916782E2E8112160CF0E6
:104020005FC08A818F0D8A839B8196199E199B831D
:10403000362D390FF801EB5BFF4F408131965081EF
:10404000951708F04AC0431718F0391708F048C010
:10405000922F980FF801ED5BFF4F20813196308150
:10406000831708F051C0291710F09817C8F51C8263
:104070001D82580189E5A80EB11C4801EAE58E0EA3
:10408000911C6801F1E7CF0ED11CF5016081CE01D2
:104090000E948516482EF4016081CE010E9485168B
:1040A000382E2C80ED80F42C5E8052188985811189
:1040B0000EC06A814B818B85F6018083252DF51416
:1040C00008F42F2D4E0D620DC8010E94460FF51405
:1040D000F8F0F518E394212CE7CF431708F4B5CF97
:1040E000872DDF91CF911F910F91FF90EF90DF907F
:1040F000CF90BF90AF909F908F907F906F905F9088
:104100004F903F902F900895291708F4AECFE8CF35
:10411000F20CFC82ED82532C2E802F186A814B8189
:104120008A85F6018083222D521408F4252D4E0D28
:104130006F0DC8010E94460F521420F05218E394EC
:10414000F12CEACFF50CFC82ED8261E0CE010E94F9
:1041500085168111A6CF8D8186150CF496CF8A85A0
:10416000F6018083BDCF80E0BCCF0F931F93CF9328
:10417000DF93EC018C010C5F1F4FFC01E958FF4FEE
:104180000190F081E02DC80109958E3F2FEF920735
:1041900070F4FE01E658FF4FC758DF4F9C01408185
:1041A0006881C8010E94C11F9881890F888381E0BE
:1041B00090E0DF91CF911F910F910895FC01A081B4
:1041C000B18150962C9182AD38E0839FC0011124BB
:1041D000289FA001299F500D112470E060E080AD60
:1041E00091AD0C94FF351F93CF93DF93EC010E94A8
:1041F00005181BAD8AAD180FE881F9818189181760
:1042000068F0EC81FD8130E020E040E060E1CE012B
:10421000099580E0DF91CF911F910895FE01EE583E
:10422000FF4F8081882319F0CE010E94DE20612F8C
:10423000CE010E94F21781E0EDCFCF93DF93EC0126
:10424000FC01EE58FF4F8081882319F0CE010E94B7
:10425000DE2060E0CE01DF91CF910C94F217FB01DC
:1042600001900020E9F73197AF01461B570BDC01A5
:10427000ED91FC910280F381E02D09948F929F9241
:10428000AF92BF92EF92FF920F931F93CF93DF9362
:10429000CDB7DEB7A1970FB6F894DEBF0FBECDBF86
:1042A0007C01FA01CB0119A2223008F42AE08E0128
:1042B0000F5D1F4F822E912CB12CA12CBF01A501A7
:1042C00094010E940D31F901CA016A300CF5605D5C
:1042D000D8016E938D01232B242B252B79F790E0A9
:1042E00080E0109721F0BD01C7010E942F21A19607
:1042F0000FB6F894DEBF0FBECDBFDF91CF911F91F7
:104300000F91FF90EF90BF90AF909F908F90089586
:10431000695CDECFAB0170E060E02AE00C943E21E6
:104320004F925F926F927F928F929F92AF92BF92C5
:10433000CF92DF92EF92FF920F931F93CF936B0177
:104340007C01742EAC019B010E94DA326BEF71E0AC
:10435000811126C046015701E894B7F82FEF3FEFCF
:104360004FE75FE7C501B4010E94DA3281110CC04A
:104370002FEF3FEF4FE75FE7C501B4010E94602FC9
:104380006FEF71E0181664F02FEF3FEF4FE75FE437
:10439000C701B6010E9452321816ACF463E072E015
:1043A00087E793E0CF911F910F91FF90EF90DF90FF
:1043B000CF90BF90AF909F908F907F906F905F90C5
:1043C0004F900C942F212FEF3FEF4FE75FECC70189
:1043D000B6010E94602F87FDE1CF20E030E0A90107
:1043E000C701B6010E94602F10E000E087FF0AC0FD
:1043F0006DE287E793E00E9465138C01F7FAF09471
:10440000F7F8F094C0E060E070E080E09FE37C1695
:1044100041F020E030E040E251E40E94AA31CF5F59
:10442000F6CFA70196010E943E312B013C010E946C
:1044300023324B015C012AE0BC01A40187E793E031
:104440000E943E217C01E00EF11ECC23B1F1C5019A
:10445000B4010E94652F9B01AC01C301B2010E940F
:104460003D314B015C016EE287E793E00E946513EA
:10447000E80EF91EC15008F120E030E040E251E4BE
:10448000C501B4010E94C62F2B013C010E942332BA
:104490004B0187E793E00E948A21E80EF91EB401E0
:1044A00090E080E00E94652F9B01AC01C301B20146
:1044B0000E943D314B015C01DDCFC701CF911F91BF
:1044C0000F91FF90EF90DF90CF90BF90AF909F90B3
:1044D0008F907F906F905F904F90089585ED8093BF
:1044E000BC0080916F0390917003A0917103B09113
:1044F00072030796A11DB11D23E0B695A795979568
:1045000087952A95D1F72091BC0024FD03C0109215
:104510006D03089540916F03509170036091710392
:1045200070917203452B462B472B69F30097A10529
:10453000B10541F02AE12A95F1F700C00197A109E0
:10454000B109E1CF80916E030C94FD192F923F9237
:104550004F925F926F927F928F929F92AF92BF9293
:10456000CF92DF92EF92FF920F931F93CF93DF933F
:10457000CDB7DEB761970FB6F894DEBF0FBECDBFE3
:10458000282E8CE195E00E9473196B017C0120E0DC
:1045900030E0A9010E94523220E030E040E05FE3C9
:1045A00087FD25C1C701B6010E943E310E941C3221
:1045B0007B018EED94E00E9473194B015C0120E0B9
:1045C00030E0A9010E94523220E030E040E05FE399
:1045D00087FD12C1C501B4010E943E310E941C3208
:1045E0003B0180EA94E00E9473194B015C0120E0DA
:1045F00030E0A9010E94523220E030E040E05FE369
:1046000087FDFFC0C501B4010E943E310E941C32EB
:104610006B0182ED95E00E941D219FE3392ECE01B2
:1046200001964C012FEA422E25E1522E8CEA98E1A8
:104630000E944317109247069AE09093480661E162
:1046400074E08EEC95E00E94A112609102037091DB
:1046500003038EEC95E00E948A21E0E4E093470694
:10466000FAE0F09348066AE074E08EEC95E00E9470
:10467000A11260910403709105038EEC95E00E94F5
:104680008A2180E098E10E9443178DE080934706DD
:104690009CE09093480666E074E08EEC95E00E9402
:1046A000A112EDE4E0934706FCE0F093480661E0D8
:1046B00074E08EEC95E00E94A112222061F087E95F
:1046C00096E10E94431727E530E040E168E782ED7C
:1046D00095E00E94C11F85E99AE00E94431782E697
:1046E0008093470696E290934806B3018EEC95E0DE
:1046F0000E948A216EEF73E08EEC95E00E94A11279
:10470000E2E6E093470630924806B6018EEC95E06B
:104710000E948A216CEF73E08EEC95E00E94A1125A
:104720008AEE90E00E9443174AE0B401C7010E945C
:10473000362FF40101900020E9F7BF0168197909CB
:1047400090E080E00E9439355C01009729F0FC017F
:104750001082B4010E9406365092D5054092D405CD
:10476000C5010E94E716082F10E0A114B10419F04A
:10477000C5010E94B0341595079511950195110951
:10478000035D0093470630924806B7018EEC95E032
:104790000E948A218CEA98E10E94431710924706F2
:1047A0003092480667E072E08EEC95E00E942F217F
:1047B00082ED95E00E94F320811138CF61960FB60B
:1047C000F894DEBF0FBECDBFDF91CF911F910F9147
:1047D000FF90EF90DF90CF90BF90AF909F908F9021
:1047E0007F906F905F904F903F902F900895C701FA
:1047F000B6010E943D31DACEC501B4010E943D31BF
:10480000EDCEC501B4010E943D3100CF1F920F9241
:104810000FB60F9211242F933F938F939F93AF93D3
:10482000BF9380911D0390911E03A0911F03B0912F
:10483000200330911C0326E0230F2D3758F50296F4
:10484000A11DB11D20931C0380931D0390931E0393
:10485000A0931F03B0932003809121039091220322
:10486000A0912303B09124030196A11DB11D809353
:10487000210390932203A0932303B0932403BF91B9
:10488000AF919F918F913F912F910F900FBE0F90FD
:104890001F90189529E8230F0396A11DB11DD2CFB3
:1048A0001F920F920FB60F9211242F933F934F93A5
:1048B0005F936F937F938F939F93AF93BF93EF9388
:1048C000FF9387E793E00E944313FF91EF91BF911D
:1048D000AF919F918F917F916F915F914F913F9198
:1048E0002F910F900FBE0F901F9018951F920F924F
:1048F0000FB60F9211242F938F939F93EF93FF93F3
:10490000E0918703F09188038081E0918D03F0911D
:104910008E0382FD1BC09081809190038F5F8F7307
:1049200020919103821741F0E0919003F0E0E95863
:10493000FC4F958F80939003FF91EF919F918F9102
:104940002F910F900FBE0F901F9018958081F4CF7C
:104950001F920F920FB60F9211242F933F934F93F4
:104960005F936F937F938F939F93AF93BF93EF93D7
:10497000FF93E091FC02F091FD02309749F0A6858B
:10498000B7858585968D91FF14C09C918923A1F4EC
:10499000FF91EF91BF91AF919F918F917F916F9117
:1049A0005F914F913F912F910F900FBE0F901F90ED
:1049B00018959C91892361F7A389B4899C91858975
:1049C000809589238C93868997890197F1F7608D6B
:1049D000718DA685B785558538E020E0CB0101971C
:1049E000F1F7822F90E095958795282F4C914523DC
:1049F00009F02068315091F7868D81FD20958091D6
:104A0000FB0290E001968F7399273091FA023817D4
:104A100099F0A091FB02B0E0AC54BD4F2C93809371
:104A2000FB02828D938D0197F1F7A389B4898C9154
:104A30009589892B8C93ACCF868D8160868FF1CF41
:104A40001F920F920FB60F9211242F933F934F9303
:104A50005F936F937F938F939F93AF93BF93EF93E6
:104A6000FF938091B900887F803609F44AC0F0F541
:104A7000883209F4A7C018F5803109F49BC0B8F456
:104A8000882309F4F9C0883009F494C0FF91EF91AC
:104A9000BF91AF919F918F917F916F915F914F9156
:104AA0003F912F910F900FBE0F901F901895883156
:104AB00009F488C0803251F780934B0314C08034CE
:104AC00009F49DC040F48033B9F38833F9F680933C
:104AD0004B0385ECB0C0803509F485C0883509F4F6
:104AE00096C0883499F60E946E22D0CF883909F496
:104AF0008CC038F5883729F050F4883611F08037AB
:104B000029F683E080936D031092B30257C0883872
:104B100009F47BC0803919F0803809F0B7CF809153
:104B2000B302803208F071C0E091B30281E08E0FD1
:104B30008093B3028091BB00F0E0ED56FD4F80837F
:104B40003DC0803B39F0E0F4803A09F479C0883AFE
:104B500009F09CCF84E080936D0310929202109232
:104B60009102E091F602F091F7020995809191028D
:104B700081110FC081E0809391021092710209C0EF
:104B8000803C09F4A6CF883C09F4A3CF883B09F008
:104B90007DCFE091920281E08E0F80939202F0E04F
:104BA000EF58FD4F80818093BB00909192028091DD
:104BB000910229C0809148038093BB0085EC8093CB
:104BC000BC0064CF90914A0380914903981758F52F
:104BD000E0914A0381E08E0F80934A03F0E0E95DA3
:104BE000FC4F8081E9CFE0914A0381E08E0F8093F2
:104BF0004A038091BB00F0E0E95DFC4F8083909117
:104C00004A03809149039817C8F285E8D8CFE0910C
:104C10004A0381E08E0F80934A038091BB00F0E04D
:104C2000E95DFC4F808380914C0381115CCF81E072
:104C30008093470384EA8093BC0010926D0326CFD3
:104C400085EC8093BC0010926D038091B30280329A
:104C500030F4E091B302F0E0ED56FD4F1082609128
:104C6000B30270E0E091F802F091F90283E992E07A
:104C700009951092B3020ACF10924B0334CFCF9311
:104C8000DF9310927A031092790388EE93E0A0E00C
:104C9000B0E080937B0390937C03A0937D03B0935B
:104CA0007E0327EB31E0309378032093770325ECE4
:104CB00030E0309384032093830324EC30E030937E
:104CC00086032093850320EC30E030938803209303
:104CD000870321EC30E030938A032093890322EC90
:104CE00030E030938C0320938B0326EC30E030933C
:104CF0008E0320938D0310929003109291031092D3
:104D0000920310929303109217041092160480934A
:104D1000180490931904A0931A04B0931B0489EC0F
:104D200091E090931504809314041092D105109291
:104D3000D00587ED9EE0909346068093450610923D
:104D40004706109248061092EA058DEE91E0909386
:104D5000CF058093CE051092D3051092D205109204
:104D6000E7051092DE051092DF051092E005109223
:104D7000E1058FEF8093E8058093EC05E0EFF5E027
:104D800086E096E0DFEFD1938E179F07E1F780E58D
:104D900094E19093D7058093D60585E495E19093AF
:104DA000D9058093D80589E59CE19093DB05809334
:104DB000DA0581E698E19093DD058093DC0530E02B
:104DC00020E040E069E082ED95E00E9450141092EE
:104DD0001A061092190681EE9EE0909307068093C2
:104DE000060680E294E090930B0680930A06C1E0E9
:104DF000C0930C0610920D061092260610924206E1
:104E0000C0934306C093440685EF91E09093090652
:104E10008093080682ED95E00E941216E091080644
:104E2000F09109060280F381E02D82ED95E009956D
:104E300084E49FE090931C0680931B06D093FB05AF
:104E4000D093FC05D093FD051092B2051092B105E8
:104E500088EE93E0A0E0B0E08093B3059093B405B2
:104E6000A093B505B093B6058BED91E09093B00596
:104E70008093AF051092C6051092C5051092C80523
:104E80001092C7051092CA051092C9051092CC0560
:104E90001092CB058091CD058E7F8D7F8093CD05BF
:104EA00081FB662760F96C278AE00E94091061E0A7
:104EB0008AE00E947710EBE8FAE0E491E093BF0506
:104EC000E7E7FAE0E491F0E0EE0FFF1FED59F54F50
:104ED000859194919093C1058093C00560E082E034
:104EE0000E9477108091CD0581FD04C061E082E0D1
:104EF0000E94091092E09093BB05E3E8FAE0E49188
:104F0000E093BC05EFE6FAE0E491F0E0EE0FFF1F5E
:104F1000E75AF54F259134913093BE052093BD0596
:104F200010929B051092A1051092A8051092A90558
:104F30001092AA051092AB0581E08093A70580939B
:104F4000A4051092A5059093A60580939A0583E089
:104F500090E090939F0580939E050E941434909357
:104F6000A3058093A205009709F471C023E0DC013A
:104F70001D922A95E9F781E090E090939D0580933A
:104F80009C0583E08093A00580919B05882341F0D8
:104F900061E083E00E94771060E083E00E940910E6
:104FA000E0E7FAE0E491F0E0EE0FFF1FED59F54F76
:104FB000859194919093AD058093AC05E4E8FAE077
:104FC000E491E093AE051092600510925F05109297
:104FD00062051092610510926405109263058FEFCF
:104FE00080936E0580936F058093700580937105A3
:104FF0001092720510927305109274051092750547
:105000008EE080935A058CE3ECE1F5E0DF01982F08
:105010001D929A95E9F71092580510925905EEEDF8
:10502000F4E0DF01982F1D929A95E9F710921A0586
:1050300010921B05E0EAF4E0DF011D928A95E9F782
:105040001092DC041092DD04DF91CF91089510924C
:105050009F0510929E0510929D0510929C0591CF80
:10506000CF93DF93CDB7DEB7C254D1090FB6F89412
:10507000DEBF0FBECDBF789484B5826084BD84B599
:10508000816084BD85B5826085BD85B5816085BD43
:1050900080916E00816080936E00109281008091FB
:1050A0008100826080938100809181008160809383
:1050B0008100809180008160809380008091B100A8
:1050C00084608093B1008091B00081608093B000D3
:1050D00080917A00846080937A0080917A00826067
:1050E00080937A0080917A008E7F80937A008091FD
:1050F0007A00806880937A001092C100E091870363
:10510000F091880382E08083E0918303F09184032F
:105110001082E0918503F091860387E680831092E8
:105120008F03E0918B03F0918C0386E08083E09104
:105130008903F0918A03808180618083E0918903F3
:10514000F0918A03808188608083E0918903F091E7
:105150008A03808180688083E0918903F0918A03CB
:1051600080818F7D8083B6E77B2E04E114E087E7A2
:10517000E82E8AE0F82E9BE8C92E9AE0D92E2FE976
:10518000A22E22E1B22E30EA832E32E1932E7092CB
:10519000650510935C0500935B0580916E058F3F5C
:1051A000C9F51092260310922503109274031092F1
:1051B00073030E94DF19B092F702A092F602909258
:1051C000F9028092F80280ED0E94F91E90E0B0E0B2
:1051D000A0E08093660590936705A0936805B0935F
:1051E000690580369105A105B10509F45FC06BE042
:1051F00072E087E793E00E942F2169E272E087E77F
:1052000093E00E942F2168EE73E080E090E00E941E
:105210006C12BDCF61E00E94091061E080916E05C3
:105220000E947710809171058F3F91F56FB6F894C9
:105230008091F502811125C0F7018491F6019491C6
:10524000E82FF0E0EE0FFF1FE55CF54FA591B4915C
:105250008C91982321F461E08AE00E94091061E0BA
:105260008AE00E9477108CB580618CBD8CB580641B
:105270008CBD61E08DE00E94771061E08BE00E94C0
:1052800077108091F5028F5F8093F5026FBE9BCF00
:1052900061E00E94771061E080916F050E947710B5
:1052A00060E0809170050E9477108DCF66EB80EEF4
:1052B0000E94CC1C6AE070E080E090E00E946C12DA
:1052C00083EF0E94F91E80FDF5CF88E80E94BB1F86
:1052D00090937705809376058AE80E94BB1F909390
:1052E0007905809378058CE80E94BB1F90937B051D
:1052F00080937A058EE80E94BB1F90937D05809372
:105300007C0580E90E94BB1F90937F0580937E05FA
:1053100082E90E94BB1F909381058093800584E9F8
:105320000E94BB1F909383058093820586E90E94AB
:10533000BB1F909385058093840588E90E94BB1F5D
:1053400090938705809386058AE90E94BB1F9093FE
:105350008905809388058CE90E94BB1F90938B057B
:1053600080938A058EE90E94BB1F90938D058093E0
:105370008C0581EA0E94F91E80938E0581EE0E94C1
:10538000BB1F9093900580938F0583EE0E94F91EBA
:105390008093910584EE0E94F91E182F85EE0E94DD
:1053A000F91EF0E11F02900111248F70282B309319
:1053B00093052093920586EE0E94F91E182F85EE24
:1053C0000E94F91E40E114029001112490E0F4E0E3
:1053D00095958795FA95E1F7822B932B90939505F8
:1053E0008093940587EE0E94F91E809396058DEEBA
:1053F00080939805809199058F71806A80939905B3
:1054000080919705807C8093970560E084EF0E94EF
:10541000CC1C6091990562956695677082EF0E9439
:10542000CC1C80919705682F677050E2659FB00192
:105430001124282F269526952695277094E0299FDC
:1054400090011124622B87FB882780F9682B85EF58
:105450000E94CC1C80919805682F6770A0E26A9F1B
:10546000B0011124282F2695269526952770B4E0A3
:105470002B9F90011124622B8295869586958370CF
:10548000682B84EF0E94CC1C64E670E080E090E022
:105490000E946C121092CA051092C9051092C8059C
:1054A0001092C7051092C6051092C5058DEC90E0CC
:1054B0009093CC058093CB059091BB05963108F075
:1054C00047C025E530E03093C6052093C5052BEC99
:1054D00030E03093C8052093C70520E930E03093D1
:1054E000CA052093C9052091680084E0983048F0EF
:1054F00031E09E3008F430E081E001C0880F3A9539
:10550000EAF7822B809368002DE630E0983050F067
:105510002BE630E09E3030F02CE630E0963110F093
:1055200030E020E03093C3052093C205292F30E0FE
:10553000983008F09FC081E001C0880F9A95EAF783
:105540008093C4058091CB059091CC050197F1F72C
:105550008091C9059091CA05892B49F1E091FC021F
:10556000F091FD0225E0EF3AF20709F1309739F0AA
:10557000A389B4899C918589809589238C93809196
:10558000CD058E7F8093CD051092FB021092FA021A
:105590008FEA95E09093FD028093FC02E091C205B2
:1055A000F091C30580819091C405892B808368E1C7
:1055B00074E087E793E00E94A11269E272E087E756
:1055C00093E00E942F21E091D605F091D70530E0BD
:1055D00020E040E06AE082ED95E0099582ED95E0FB
:1055E0000E941D2182ED95E00E94F3208111FACFE7
:1055F00060E082ED95E00E94F217E091D605F0910F
:10560000D70530E020E040E06BE082ED95E00995C1
:105610008091A00587FD08C061E00E94771060E0DE
:105620008091A0050E94091081E080939B05609104
:10563000A105693291F12091A2053091A305615035
:1056400031F170E08FEF98E20E94E530F90140916E
:105650009E0550919F05CF01821B930B84179507E0
:10566000C8F44081469FC001479F900D112490834C
:105670003196EDCF9E3040F42850310981E001C0D1
:10568000880F2A95EAF75CCF2E503109F7CF70E0EA
:1056900060E0DCCF89E28093A10580919C05909128
:1056A0009D05892B29F04FEF60E080E00E947B0F81
:1056B0008091A2059091A305892B11F00E94D8102A
:1056C00068EE73E080E090E00E946C120FE010E062
:1056D0001E0131E2230E311C81E00E94A6220E94AD
:1056E000CB1D4B015C010E94CB1D8DEF0E944E1F14
:1056F0006C01F12CE12CC11440E8D406E104F10462
:1057000009F402C280916A0590916B05A0916C0525
:10571000B0916D059C01AD013C5241405109239669
:105720002CAF3DAF4EAF5FAF2397FEE0CC0CDD1C3E
:10573000EE1CFF1CFA95D1F780919205909193058C
:10574000092E000CAA0BBB0B64E1880F991FAA1F3E
:10575000BB1F6A95D1F7C81AD90AEA0AFB0AA091B9
:105760009405B09195050E942F31C61AD70AE80A10
:10577000F90A30E4D30EE11CF11C7FE0F594E794C4
:10578000D794C7947A95D1F7A0919105B0E023966C
:105790002CAD3DAD4EAD5FAD23970E9484302B0103
:1057A0003C01EBE07594679457944794EA95D1F7E0
:1057B00040E8540E611C711CA09196050A2E000C45
:1057C000BB0B23962CAD3DAD4EAD5FAD23970E9434
:1057D0002F31FAE09595879577956795FA95D1F7EA
:1057E000A30192010E94D5309B01AC01AAE055951E
:1057F000479537952795AA95D1F7405E5F4FA091C1
:105800008F05B09190050E942F31705E8F4F9F4F92
:10581000BEE09595879577956795BA95D1F7A701DD
:1058200096010E94D5306B017C012FE095958795FC
:10583000779567952A95D1F79B01AC010E94D530E9
:105840009B01AC0167E055954795379527956A957B
:10585000D1F7A0918E05B0E00E948430E4E09595E8
:10586000879577956795EA95D1F7C61AD70AE80A1A
:10587000F90AF7FE03C0C12CD12C7601C701B6018D
:1058800061307105810559E1950724F060E070E011
:1058900080E099E1ECE09595879577956795EA9595
:1058A000D1F70E94672F20E030E040E85AE30E94E1
:1058B000C62F6B017C0180915A058E3008F08E5006
:1058C0008770806480937C0080917A0080648093EC
:1058D0007A0080917A0086FDFCCF809178006091FB
:1058E0007900762F682F072E000C880B990B0E94E9
:1058F000672F9B01AC0160E070EC8FE794E40E949D
:10590000AA3120E030E040E85FE30E943D3120E032
:1059100030E44EE455E40E94C62F23966CAF7DAF71
:105920008EAF9FAF239726EA3BE944E45CE3C501D1
:10593000B4010E94C62F9B01AC016AEC74E589EDAD
:105940009FE30E943D312B013C0128E43AE848ECFA
:105950005BE3C701B6010E94C62F9B01AC01C301E6
:10596000B2010E943D319B01AC0123966CAD7DAD2F
:105970008EAD9FAD23970E94AA3123EB36E04AEA11
:1059800056E40E94AA312EE534EF41E350EC0E9428
:105990008A3225E437EE42EF52E40E94C62F2B01F3
:1059A0003C0120E030E0A901C701B6010E9452325B
:1059B000181634F520E030E048EC52E4C701B60197
:1059C0000E94602F1816E4F08091DC0490E0FC0146
:1059D000EE0FFF1FEE0FFF1FE056FB4FC082D1827C
:1059E000E282F3820196B8010E94F9308093DC04D0
:1059F0008091DD048F5F803108F08DC08093DD04DD
:105A000020E030E040E252ECC501B4010E94523285
:105A100087FD26C020E030E040EA52E4C501B40131
:105A20000E94602F1816E4F080911A0590E0FC01A6
:105A3000EE0FFF1FEE0FFF1FE252FB4F808291829D
:105A4000A282B3820196B8010E94F93080931A05B0
:105A500080911B058F5F803108F05FC080931B052C
:105A600061E37AE087E793E00E94A11242E0C70178
:105A7000B6010E94902180EA94E00E94731941E0EF
:105A80000E9490216FE27AE087E793E00E94A112E2
:105A900062E27AE087E793E00E94A11242E0C5014A
:105AA000B4010E94902160E27AE087E793E00E94CF
:105AB000A11267E17AE087E793E00E94A11242E039
:105AC000C301B2010E9490218EED94E00E947319EF
:105AD00041E00E94902169E272E087E793E00E9432
