:100000000C94BA0F0C94E20F0C94E20F0C94972608
:100010000C9497260C9497260C94E20F0C94E20F04
:100020000C94E20F0C94E20F0C94E20F0C94E20F8C
:100030000C94E20F0C94E20F0C94E20F0C94E20F7C
:100040000C94F5250C94E20F0C9465260C943F2635
:100050000C94E20F0C94E20F0C94E20F0C94E20F5C
:100060000C940F270C94E20F07634236B79BD8A776
:100070001A39685618AEBAAB558C1D3CB7CC5763CD
:10008000BD6DEDFD753EF6177231BF000000803F7B
:1000900008000000BE922449123EABAAAA2ABECD97
:1000A000CCCC4C3E00000080BEABAAAAAA3E000009
:1000B0000000BF000000803F000000000008417801
:1000C000D3BB4387D1133D190E3CC3BD4282AD2B38
:1000D0003E68EC8276BED98FE1A93E4C80EFFFBE30
:1000E00001C4FF7F3F0000000000504D5335303009
:1000F0003320416972205175616C697479205365B0
:100100006E736F72004661696C7572650000640001
:1001100000640000640000640000640000640000EB
:100120006400006400006400006400006400006477
:1001300000006400006400006400006400006400CB
:1001400000640000640000640000640000640000BB
:100150006400006400006400006400006400006447
:10016000000064000064003767004A6F005879009F
:100170006482006F8C007B9500859E0090A7009A9A
:10018000B000A5B900AFC100B9CA00C3D200CDDA32
:1001900000D8E200E2E900ECF100F6F800FFFF0011
:1001A000FFFF00FFFF00FFFF00FFFF00FFFF00FF5A
:1001B000FF00FFFF00FFFF00FFFF00FFFF00FFFF4A
:1001C00000FFFF00FFFF00FFFF00FFFF00FFFF0039
:1001D000FFFF00FFFF00FFFF00FFFF00FFFF00FF2A
:1001E000FF00FFFF00FFFF00FFFF00FFFF00FFFF1A
:1001F00000FFFF00FFFF00FFFF00FFFF00FEFA000F
:10020000FCF500FAEF00F9EA00F7E400F6DE00F48E
:10021000D800F3D200F1CC00F0C500EFBE00EDB77E
:1002200000ECAF00EBA700EB9F00EA9600E98C0022
:10023000E98000E87400E87400E87400E87400E8FD
:100240007400E87400E87400E87400E87400E8746E
:1002500000E87400E87400E87400E87400E87400D2
:10026000E87400E87400E87400E87400E87400E8DA
:100270007400E87400E87400E87400E87400E8743E
:1002800000E87400E87400E87400E87400E87400A2
:10029000E87400EA7100EB6E00EC6B00EE6800EFB2
:1002A0006400F06100F15D00F25900F45500F55171
:1002B00000F64C00F74800F94200FA3C00FB36001B
:1002C000FC2E00FD2500FE1800FF0000FF0000FFCF
:1002D0000000FF0000FF0000FF0000FF0000FF0023
:1002E00000FF0000FF0000FF0000FF0000FF000013
:1002F000FF0000FF0000FF0000FF0000FF0000FF04
:100300000000FF0000FF0000FF0000FF0000FF00F2
:1003100000FF0000FF0000FF0000FF0000FF0000E2
:10032000FF0000FF0000FF0000FB0034F7004AF36D
:10033000005AEE0067E90073E5007DE00086DB000F
:100340008FD50097D0009ECB00A5C500ACBF00B2F2
:10035000B900B8B200BEAB00C4A400C99C00CE94E2
:1003600000D39400D39400D39400D39400D394008A
:10037000D39400D39400D39400D39400D39400D3A7
:100380009400D39400D39400D39400D39400D394D6
:1003900000D39400D39400D39400D39400D394005A
:1003A000D39400D39400D39400D39400D39400D377
:1003B0009400D39400D39400D39400D39400D394A6
:1003C00000D39400D39400D39400D39400D394002A
:1003D000D39400D39400D39400D39400D39400D347
:1003E0009400D39400D39400D39400D39400D39476
:1003F00000D39400D39400D39400D39400D39400FA
:10040000D39400D39400D39400D39400D39400D316
:100410009400D39400D39400D39405D1930ACE9240
:100420000ECB9212C89115C59117C3901AC0901C9B
:10043000BD8F1EBA8F20B78E22B48E24B18D25AE0B
:100440008D27AB8C28A88C2AA48C2BA18B2D9E8B5E
:100450002E9A8B2F978A31938A328F8A338C8934E4
:100460008889358489377F89387B893976893A71DB
:10047000893B6C893C67893D61893E5A8940538933
:10048000414C8A42428A43388A44298B45138B4522
:10049000138B45138B45138B45138B45138B4513DA
:1004A0008B45138B45138B45138B45138B45138B52
:1004B00045138B45138B45138B45138B45138B4588
:1004C000138B45138B45138B45138B45138B4513AA
:1004D0008B45138B45138B45138B45138B45138B22
:1004E00045138B45138B45138B45138B45138B4558
:1004F000138B45138B45138B45138B45138B45137A
:100500008B45138B45138B45138B45138B45138BF1
:1005100045138B45138B45138B45138B45138B4527
:10052000138B45138B45138B45138B45138B451349
:100530008B45138B45138B45138B45138B45138BC1
:1005400045138B45138B45138B45138B45138B45F7
:10055000138B45138B45138B45138B45138B451319
:100560008B45138B45138B45138B45138B45138B91
:1005700045138B45138B45138B45138B45138B45C7
:10058000138B45138B45138B45138B45138B4513E9
:100590008B45138B45138B45138B45138B45138B61
:1005A00045138B45138B45138B45138B45138B4597
:1005B000138B45138B45138B45138B45138B4513B9
:1005C0008B45138B45138B45138B45138B45138B31
:1005D00045138B45138B45138B45138B45138B4567
:1005E000138B45138B45138B45138B45138B451389
:1005F0008B45138B45138B45138B45138B45138B01
:1006000045138B45138B45138B45138B45138B4536
:10061000138B45138B45138B45138B45138B451358
:100620008B45138B45138B45138B45138B45138BD0
:1006300045138B45138B45138B45138B45138B4506
:10064000138B45138B45138B45138B45138B451328
:100650008B45138B45138B45138B45138B45138BA0
:1006600045138B45138B45138B45138B45138B45D6
:10067000138B45138B45138B45138B45138B4513F8
:100680008B45138B45138B45138B45138B45138B70
:1006900045138B45138B45138B45138B45138B45A6
:1006A000138B45138B45138B45138B45138B4513C8
:1006B0008B45138B45138B45138B45138B45138B40
:1006C00045138B45138B45138B45138B45138B4576
:1006D000138B45138B45138B45138B45138B451398
:1006E0008B45138B45138B4513434F322050504D90
:1006F0002000090054656D70657261747572652023
:1007000000090048756D6964697479200000000073
:1007100000240027002A0000000008000201000059
:1007200003040700000000000000002500C2B00024
:1007300031302E3000322E3500504D202020200048
:10074000504D20202020000000000023002600291A
:100750000000000000250028002B0004040404040D
:10076000040404020202020202030303030303015E
:100770000204081020408001020408102001020435
:10078000081020120004040506050606132900FEC1
:1007900022F722000000000001FD20060080A00DCD
:1007A0002A17EDA1785D43A71A32E4819354A792EA
:1007B0003C7032D5D0A9002B10ADA9E74D24E9EA51
:1007C000C1078748D20A002C0CC4A05E0B2C8608F7
:1007D0000901002D088DA8EB0D3F382E0884A0607C
:1007E0000B2C062F22509CA0BDD592AD966CB56403
:1007F000AB255B2DD94ACB96255B2DD96AC9564BC3
:10080000B65AB2D50230215194606D4593356A7362
:10081000E248A912E552E2FFFF325D8952454E9C43
:1008200069D42C693100311248C4A04DD454F2E08F
:10083000C1883284E8FFFF0F322B5194606D45D39D
:10084000AD6A6349A912E5526299AEC4402221CB38
:10085000162E5B71D9B2662B2E5B71D98ACB167EB0
:10086000F00304332651945F0D7F80B86CE1B2151C
:1008700097ADB86CE1A328D31E2E5DB8347D5C44DF
:100880001C23236E1CB1430500342A5194606DA4CF
:1008900009574C9A70C5A409574CB862D284CB90C2
:1008A0002A438A102942840A112A44E8C10F50922F
:1008B000A68F0035285194A00D7FC09A7E62CACDC4
:1008C000930721909830A62E254AD2748D1265BACE
:1008D00012C54A1C31E388994A5300362D5194A021
:1008E0006D4593356A73E248A912E552A2A617A78F
:1008F000DC3C7910E28C8972EA52E297E94A942A48
:1009000072E24C2376498B0137225194600D7FC0EF
:10091000304312E44A902B5CB6706D0BD7B670C5AD
:10092000846B4CB8B6856B5B100038315194606DA8
:100930004593356A73E248A912E552E265BA12A5F9
:100940008A9C38D36A559B27664C945397122FD3B1
:10095000952855E4C49946EC921603392D5194A07C
:100960006D2695317272E248317529F1CB84E94ADE
:100970001832F120C81B572748D31A25CA74CB4A0E
:100980001C31E3A6994A53003A0D64A2640B2CC4AF
:10099000C38085080000000004FFFF00001200056E
:1009A0000505060507061A3700FD2EF42E00000087
:1009B000000002F520060080401F2A3194AA601F23
:1009C0001190A4824294800C8318C33002118C4091
:1009D00005893848510A728814A8600422186318DF
:1009E000C4184850881228029210002B1252B249A3
:1009F000DF18CC3CF3811F788CC1CC33002C0F2640
:100A0000B1BD5808A2085220885800002D09D2B064
:100A10004F1FFC81072E0DC6B0C05808A2089118C0
:100A200004002F47D6A5401F1AEF780634DEF18C5C
:100A3000773C031AEF780634DEF10C68BCE319D07A
:100A400078C733A0F18E67BCE319D078C733A0F123
:100A50008E6740E31DCF80C63B9E018D773C031A15
:100A6000CF80C63B9E010D0800302DD79DC01E1DB6
:100A70006E51CF89CA44A68114441CE708476A1600
:100A8000FBFFFFDF6AD2118C6408A4206322538924
:100A9000CEA3167720003117CCD540DF98951341AF
:100AA00046123E50856418C6FCFFFFFF033241D753
:100AB0009DC01E1D6E51CF89CA44A68114441CE7F7
:100AC00008476A16BBD5A42310CB10C33ADE018FAA
:100AD0007740031EEF80063CDE018F7782C73BC163
:100AE000E31DD080C73BE0F14EF0037FC001333BF4
:100AF000D79DBF1EFC030E3CDE091EEF80063CDEC8
:100B0000010D78BC031E0F79895B18B31A97402436
:100B10001AF188E63F12AC4310E908C741822292DD
:100B20004111C940A8610902003437D79DC01E1980
:100B3000D08866D08866D088A65844B35844B35845
:100B400044B361A08218C720C63188710C629CA290
:100B500018C62886318A613EF0079C6544F3670019
:100B60003538D79DC01EFC035434FFC48122331195
:100B70006A54A2124941C2918C70A466316B6146DD
:100B8000345F5C18B398D5A42318C9104841C644F3
:100B9000A6129D472DEE4000363FD79DC01E1D6E0C
:100BA00051CF89CA44A681144418C908476A162B34
:100BB0009A6F18283213A146252A91142420E70899
:100BC000476A16FB6F35E908C7390452903191A97D
:100BD00044E7518B3B10003737D79DC01EFC039470
:100BE0006A292318E908463A82918C68C01334A216
:100BF000014FD088063C41039E41039EA0110D7811
:100C0000824634E0091AD1802768C0330500384491
:100C1000D79DC01E1D6E51CF89CA44A68114441CA5
:100C2000E708476A16FBAD261DE13887400A32A661
:100C300012995899C834908288E31CE148CD62BF6C
:100C4000D5A4231CE7104841C644A6129D472DEEAB
:100C500040003941D79DC01E1D6E51CF89CA44A6A0
:100C60008114441CE708476A16FB6F35E908C74141
:100C7000025212511B14994C848C6144737161CCE3
:100C80006256938E60244320051913994A741EB549
:100C9000B803013A1446B3C6380CA208D1103E4836
:100CA0000BA2089120020000000004FFFF0000E0FA
:100CB00000030305050406061317FEFC10FC1000D4
:100CC000020F04090BE520060020A8022109022AD0
:100CD00068E24389002209646CAB42321105231F8C
:100CE0000826A84E229A882423C94822391C241396
:100CF00091CAE1205193C824A2894809002414888C
:100D0000A6A74E2CA5594645F23E134B131B552C56
:100D10000325180826A84666915044AA6255B15486
:100D2000AC2A5291442436090026170826A86E588A
:100D300092496412F1744894C82412929B697232E9
:100D4000270762686BA2022810042EA82A2611A980
:100D500088F44D241A45002910042EA8262413A92E
:100D600089F445241985002A12E8E4AA4E18914412
:100D70000E21D22112910465002B0CC6E8A84A2846
:100D80003A948422002C0762E86782122D07466895
:100D9000A9E2502E0742286882002F140826A85A7C
:100DA0003A154BA762A958552C9D8AA55300300FC0
:100DB0000826A88A661915F98FA5898D04310B04B8
:100DC0002EA84A74A088F43F32140826A88A66190F
:100DD00015D9A6D2E1543A559D1E0E0233120826AB
:100DE000A8E2413A555D258F359726361200341218
:100DF0000826A84E2AD62AD622D2E970108A950053
:100E000035130826A8E281AC6CBA8C8A62656269E7
:100E100062230136140826A88A661915C962D365AB
:100E200054E4589AD8480037130826A8E281489B12
:100E30008A55A762E9AA583A150238150826A88AE1
:100E4000661915194B13936554642C4D6C240039A5
:100E5000140826A88A66191539962627B398589A31
:100E6000D848003A0822A968820E233B09426968E3
:100E7000820EA3043C0D25EDB83226590ACE86C257
:100E8000003D09C7A8B8E21DE1013E0E25EDB822DC
:100E9000289C0D4393A520003F130826A88A6619B5
:100EA00015C5D2E154597704B10C00402A6E2607CB
:100EB000D30E384487B33940322A914C24259212FC
:100EC0004989A44452222991944807D3212407CF69
:100ED000A107F1210441140826A84E2C1EF22891E6
:100EE00049443A992E3222510042140826A8A2768B
:100EF000914984DC24A68BACC84D72A9014310082B
:100F000026A88A661915C9FA6369622301440F0885
:100F100026A8C2749115F9DF0E131300450F082699
:100F2000A8E281ACB3C924D6F97010460E0826A8F1
:100F3000E281ACB3C924D6670047110826A88A66A7
:100F40001915C93A393296262703480D0826A842B2
:100F5000C88F8783911F054908022A68E207024A61
:100F60000D0826A85AFF33B134B191004B1A082658
:100F7000A842569388262215598D389D126B1299D6
:100F800048692293C8064C0C0826A842ACFFE7C368
:100F900041004D130826A84258723AFC2091502473
:100FA00094109147014E130826A842586B33992E8E
:100FB0001409454239B975144F0F0826A88A6619D5
:100FC00015F98FA5898D0450110826A8A27691499C
:100FD00084BC492E35B19E01510F0826A88A661996
:100FE00015F98FA5C9C90052150826A8A2769149FE
:100FF00084BC492E26BD4964129944285311082601
:10100000A88A661915C9FB4C2C4D6C2400540C0899
:1010100026A8E24126D6FF1B00550D0826A842C887
:10102000FF636962230156170826A8424894C82422
:101030003289486F129944562352B7CA0057110794
:101040002AB842C69708254289500EBFB80C5816D8
:101050000826A84228914944DA24B21A91636922E9
:10106000D21B510059170826A84228114D44BACC6A
:1010700088C4E9582A964EC5D229005A150826A8D0
:10108000E2412C154BC552B1542C154BC58783003A
:101090005B0B052EA8E250D3FF76185C11072AA837
:1010A00042AA2C954E55A7AA53D5A9005D0B042E34
:1010B000A8E210D2FF74185E096628AC4A461109EE
:1010C0005F072AE0A7E230600863F0AB42221261BA
:1010D000168925B86E5A5392C90132D34528114A50
:1010E00084A243882262110826A842ACD97419153B
:1010F000F9583A4C4C0063108825A88A661915C91E
:101100003A9626361200640F0826A85A27CB615457
:10111000E46369723265128825A88A661915898781
:1011200083593C9AD84800660F0826A88E66D2AC30
:1011300078B989F5230067160826A7CA7218158999
:10114000A589A926165B0E43E2616201680E082696
:10115000A842ACD9741915F94701690D03266842F4
:10116000220748F42F13016A0F862AA7521D49A8A7
:10117000FF91748850006B180826A842AC5B4D2282
:101180009A8854641259DB443499C824B2016C0B18
:1011900004266842A4FF27CA006D1B8E2508C3449D
:1011A0003A5846A4A29028240A8942A29028240AE8
:1011B0008942A2026E0C8825A8C2741915F947014C
:1011C0006F0F8825A88A661915F9589AD8480070B3
:1011D000110826A7C2741915F9583A4C4C62CD0073
:1011E000710F0826A7CA721815F9589A9CCC3A7242
:1011F0000B862588E22142D41F0173108725986A47
:1012000056913113C9349AA43602740E05267846D5
:10121000A6E93091E937D200750C8825A842C83F6D
:101220009626270376138825A8424894C824A289C5
:10123000486F12598DC80477208E2508432824CE84
:1012400024B29944449388484A24A58A4CA28D2408
:101250009191882422890478148825A84228114D68
:10126000443222552C25D2445A8402791B0826A7E1
:10127000462691496422C9482293C824328990386D
:10128000DD16191587007A118825A8E2413A9C4A93
:101290008753E9707A38087B1046AAA7523612EABB
:1012A000369A0D877A1D0A7C0882B2A7E20F057D67
:1012B0001046AAA742B8A8D7D948A8DB6826047E5A
:1012C0000848A4A9E210397F060020A80280060081
:1012D00020A80281060020A80282060020A802831E
:1012E000060020A80284060020A80285060020A887
:1012F0000286060020A80287060020A802880600B1
:1013000020A80289060020A8028A060020A8028BD5
:10131000060020A8028C060020A8028D060020A846
:10132000028E060020A8028F060020A80290060068
:1013300020A80291060020A80292060020A802938D
:10134000060020A80294060020A80295060020A806
:101350000296060020A80297060020A80298060020
:1013600020A80299060020A8029A060020A8029B45
:10137000060020A8029C060020A8029D060020A8C6
:10138000029E060020A8029F060020A802A00600D8
:1013900020A802A1060020A802A2060020A802A3FD
:1013A000120826A86E589249C45A4D36B1AE8783AA
:1013B00000A4060020A802A5060020A802A6060098
:1013C00020A802A71E90252873592A1E8E6944C999
:1013D00044321A49446A34E3B0383495288E3412C2
:1013E00000A8060020A802A9290E2608D30E38441A
:1013F00087333944321B954C2499840E90D00112C6
:10140000924C4232D546133944369C1EE2002300EA
:10141000AA060020A802AB10E824A92E656299C490
:101420006293D164A400AC060020A802AD0600209F
:10143000A802AE060020A802AF060020A802B0094C
:1014400064E46B6212A200B1060020A802B206009A
:1014500020A802B3060020A802B4060020A802B506
:101460000DE865A742C83F960ECFCA00B606002019
:10147000A802B7060020A802B8060020A802B906F4
:101480000020A802BA060020A802BB11E824A92265
:10149000169B8C26B3245165221201BC060020A89D
:1014A00002BD060020A802BE060020A802BF06005A
:1014B00020A802C0186826A84E0E8803A462F190E6
:1014C00047894C22D2C97491118902C1176826A894
:1014D000522A8E03C4E2218F129944A493E9222355
:1014E0001205C2176826A86E481309C5E2218F129B
:1014F0009944A493E922231205C3060020A802C43C
:10150000196826A84A1294C4C1E2E92247894C22EC
:10151000D2C9749149644401C5060020A802C625B9
:101520000E1AA8FA103D48E9303A48220749E4204B
:10153000891C22328A6C23396024079C0F61A158D0
:1015400078181EC7060020A802C8146826A84E2CCA
:1015500007880E07B2CE269358E7C34100C9136827
:1015600026A8522A0E1E0E649D4D26B1CE878300FA
:10157000CA146826A84E4A13490E07B2CE269358BD
:10158000E7C34100CB146826A84A1294C4618703BC
:1015900059679349ACF3E120CC0C6332A84222A2F4
:1015A000E8FF1700CD0C6332A8861292E8FF1700FF
:1015B000CE0D662AA84A461129EAFF2700CF0C64FF
:1015C0002EA8E21015E9FF1700D0060020A802D1CE
:1015D000060020A802D2136826A84E2C0708699698
:1015E0005191FF589AD84800D3126826A8522A0E63
:1015F000D32CA322FFB134B19100D4136826A84E96
:101600004A13C968965191FF589AD84800D50F08D7
:1016100026A88A661915F98FA5898D04D612682621
:10162000A88A4887D22CA322FFB134B19100D706F3
:101630000020A802D8060020A802D9116826A84ECA
:101640002C078884FC3F9626361200DA106826A8FC
:10165000522A0E0AF97F2C4D6C2400DB116826A853
:101660004E4A134984FC3F9626361200DC10682649
:10167000A88A488709F97F2C4D6C2400DD060020DC
:10168000A802DE060020A802DF180826A86A5892E1
:1016900049641299443292506445BE552892110013
:1016A000E01C0926B84E0E9043E428D39A924C0EC3
:1016B00090992E42895022141D421401E1190926E5
:1016C000B852AC8E36AD29C9E40099E922940825B8
:1016D00042D1214411E21B0926B84E4C14C551A633
:1016E0003525991C20335D8412A144283A842802B0
:1016F000E3060020A802E41B0926B84A1295C4B1EB
:101700004D6B4A32394066BA0825428950740851F7
:1017100004E5060020A802E6198C25E86AED309160
:10172000C968AA32C9E1812695C948B383893402C0
:10173000E712E865A78A661915C93A962636AA906F
:101740000D00E8170826A84A0E9003E4509A655445
:10175000241E0E66F168622301E9150826A852AA24
:101760008E40B38C8AC4C3C12C1E4D6C2400EA1673
:101770000826A84E4A13C98134CBA8483C1CCCE2A9
:10178000D1C44602EB150826A88A4847A659464503
:10179000E2E160168F26361200EC0D032668422225
:1017A0009249F42F1301ED0D0326684612114AF4F5
:1017B0002F1301EE0F061E584A4611C92142FDE3C0
:1017C0005002EF0D04266842328983F49F4602F0EE
:1017D000060020A802F1060020A802F2156826A83B
:1017E0004A0E9003E478A15946453E9626361200EB
:1017F000F3120826A852AA8E40B38C8A7C2C4D6C1A
:101800002400F4130826A84E4A13C98134CBA8C873
:10181000C7D2C44602F50F8825A88A661915F9585B
:101820009AD84800F6120826A88A4847A65946457D
:101830003E9626361200F70E26A9A84A284738D425
:1018400021421100F8140826A8CA6219D54A5E245C
:101850001489C9A9569A3801F9110826A84A0E9088
:1018600003E43021FF589A9C0CFA0F0826A852AACC
:101870000E15F28FA5C9C900FB100826A84E4A1301
:10188000C94142FEB1343919FC0F0826A88A4847DD
:1018900014F28FA5C9C900FD060020A802FE0600AB
:1018A00020A802FF060020A80200000004FFFF009D
:1018B000001C0003030404030305080800000700DC
:1018C0000700000A0000014C400A85255630A7CACF
:1018D0002C04410C583456587A88C8015100420CE7
:1018E00058346E1C203944C52100430A8525566CA6
:1018F000520AE604440F8824164D241999C84389D6
:10190000484602450F8824164D321195C5238A6436
:101910004602460F8824166D22218DC525C94446EE
:1019200002470F8824164D24118E49A68948460285
:10193000480A84268E48178A2C02490A483456F8E9
:10194000700845014A0A4834AEE4700887004B0A23
:1019500084264E684211E9024C08363D86852602EF
:101960004D09632F56E41011054E0A632E46487246
:101970008884004F073635968C62500C58344E30B0
:10198000329AD8A832005109642E964449A60052D2
:101990000A85254E6CD3642D0653094635968C2254
:1019A0001A06540B88249E58952A473D04550C88E6
:1019B00024C6218E2AA58AD500560E782C76E420DE
:1019C0008DC3A207491800570E682C9654168AD961
:1019D0004231A90800581188248E2918078462B65C
:1019E000501C100C59005910882476443691A48953
:1019F000A59214D938025A0D68346E1C20B358646D
:101A0000A138005B0F782CC63456A2C40171403057
:101A1000640200000004FFFF00001202030203033F
:101A2000010104040500000500050000000000009D
:101A30008F2006EC7C32002A09EC8C248AA64A020C
:101A40002B07ECDC688A012C07EC7C3892002D0710
:101A5000EC7C6487002E07EC7C5492002F08ECACE1
:101A60002CCAA20C3008EC9C28E929023107EC9C16
:101A7000486B023208EC0C31AA2D003308EC0C3113
:101A8000D292053408EC8CA4972D013508EC8C25F6
:101A90001313093609EC1C255B2A0B003708EC8C64
:101AA000AD9445003809EC8CA5B25416003909EC08
:101AB0008CA5B22512003A08EC0C499624000000CF
:101AC0000004FFFF00005F0203020304010204069A
:101AD0000C00FE07FE08FF017C0317048C2007E6BC
:101AE000F8F94F00210AE6F8C9697730A700220CFF
:101AF000E6F8E1244BB224E71300230FE6F819932C
:101B00006890922C890629C909240EE6F809E19407
:101B1000741C934E630E01250DE6F8895222859DB3
:101B200094488701260EE6F8A961922561A52953FC
:101B300072182709E6F809699D6F00280DE6F82953
:101B4000611AA6E534CE1100290CE6F8E16A9C166C
:101B5000D330C7002A0EE6F8C959521AC329A9E59D
:101B600014002B0AE6F8596B8396E60C2C09E6F86C
:101B7000F941D4740C2D09E6F87919746E002E0918
:101B8000E6F8F941D429002F0BE6F859C234AC86A7
:101B9000390D300AE6F8C95AD4BFE9043109E6F82C
:101BA000C9A1DA7127320CE6F8A95396868D830E07
:101BB00003330DE6F889831A867292453B01340D92
:101BC000E6F819422D894A8398E604350DE6F8892E
:101BD00083920E719A64D14E360DE6F8C95A980E6A
:101BE000519664D14E370CE6F889831AA6615AA73C
:101BF00000380EE6F8A9539664D1942559B41339E8
:101C00000EE6F8A9539664D19086994E013A0BE6F8
:101C1000F8B9893A26EA14003B0BE6F8B9893A2666
:101C20006A3A063C09E6F899C3729D0C3D0BE6F84A
:101C3000390D3A30E88C003E09E6F819E3629D055B
:101C40003F0CE6F8A95316567330A700400DE6F88E
:101C5000A95396244B9725DE094110E6F8A953961F
:101C600064C9A064499664390C420DE6F8894316AC
:101C7000356D51CB9013430BE6F8A95396A46DD163
:101C80004E440BE6F8894316F52F434E450EE6F811
:101C9000898392A64394A6830E03460DE6F88983B2
:101CA00092A64394D66900470DE6F8A95396A42559
:101CB000258B76024811E6F8895992255932285920
:101CC0009225590E034909E6F8A963DA71274A0BF0
:101CD000E6F8C963DA54D329004B0FE6F8895912A4
:101CE000553231C9A25A0E034C0AE6F88969AF830E
:101CF0000E034D0FE6F8895962E9966449966439F6
:101D00000C4E10E6F88959922552D249C9922C8777
:101D1000014F0FE6F8A95396644996644916ED04FD
:101D2000500EE6F889439425593244699D06510FB7
:101D3000E6F8A9539664499674CA941C065210E6B4
:101D4000F8894394255932444916D57218530DE643
:101D5000F8A95396C47392453B01540AE6F8898367
:101D600096F64E015510E6F8895992255992255953
:101D700092453B015610E6F88959922559924549FA
:101D800096843905570FE6F8895992255992257D91
:101D90004A72025810E6F889599245495889B22486
:101DA000CB6100590DE6F8895992454998B6530020
:101DB0005A0BE6F889831A761D74185B0AE6F8E177
:101DC0002DEDEB8E005C0BE6F889711A57E31C06CB
:101DD0005D09E6F8E1B5DF76045E0BE6F80961120D
:101DE00065395F005F08E6F8F9B741016008E6F879
:101DF000E1763E01610DE6F8B9CDD19064D190C392
:101E000000620FE6F889693A445992255932E40490
:101E1000630BE6F8B94D599266D14E6410E6F85955
:101E2000D26848B2244BB268C86100650BE6F8B9C5
:101E30004D593244F14E660BE6F8C95A541CD33A58
:101E400009670EE6F8B94D5992255934A4D10468B2
:101E500010E6F889693A445992255992E5300069AB
:101E60000AE6F8C939A636EE046A0BE6F859724C50
:101E7000ED5493006B0EE6F889692D89A22DAAE531
:101E800030006C09E6F8A96A8F3B016D0BE6F83962
:101E90002951D2FF0E036E0EE6F83925929464495B
:101EA0009664390C6F0CE6F8B94D59922559B41364
:101EB000700FE6F8390D51966449960C519A0271EB
:101EC0000EE6F8B90D49966449160D6905720CE6DF
:101ED000F839259294A4751A00730BE6F8B90D49E8
:101EE0003C27434E740CE6F8C96936686959870186
:101EF000750EE6F839654996644964C96100760E45
:101F0000E6F839654996645112E61400770CE6F854
:101F100039654996F429C909780DE6F839655112F1
:101F200056A22C8701790DE6F8396549966451125D
:101F3000B6027A0BE6F8390D62E3A0C3007B0CE62B
:101F4000F829615A8CD3728E007C09E6F809697F02
:101F500087007D0BE6F8E16A394C8B39067E0AE68C
:101F6000F8B94549A79C1500000004FFFF000000D8
:101F700037288B3011241FBECFEFD8E0DEBFCDBF96
:101F800026E0A0E3B2E001C01D92A039B207E1F75C
:101F900012E0A0E0B1E0E2E8FFE602C005900D9299
:101FA000A033B107D9F71FE0C9EBDFE004C02197E8
:101FB000FE010E94DE32C83BD107C9F70E94162AF3
:101FC0000C94B4370C940000662329F06A3019F0A1
:101FD000862F90E008958FEF9FEF0895CF92DF92C4
:101FE000EF92FF920F931F93CF93DF93EC01842F17
:101FF0008770E1E0F0E0082E01C0EE0F0A94EAF7E6
:102000003E2F7E0191E7E90EF11CD7019C9110E073
:10201000923018F41E2F913029F150E0487FE8AD3E
:10202000F9ADC880D980D60150969C91949F6001EB
:10203000959FD00C11246C0D7D2D711DDF01A60F15
:10204000B71F011115C08C91812B83278D932150CF
:10205000D1F7DF91CF911F910F91FF90EF90DF901B
:10206000CF90089530E0D9CF110F330F222389F399
:102070009C91912B93279C938F5F877021508111A6
:10208000F3CF9CADA90FB11DF7019081923028F4D8
:10209000913009F031E011E0E9CF31E0E7CF80E0A5
:1020A000089580E008950F93DC01562F222371F1EB
:1020B000FC01EB5BFF4F8081481740F13196808136
:1020C000481720F53297908131973081260F2617D7
:1020D000D8F46917C0F42FEF290F3217B8F4632F23
:1020E000351708F4652F291708F4922F292F261B7E
:1020F000D696ED91FC91D7970480F581E02D00E014
:10210000CD01099503C0532F591738F30F91089546
:102110009091E405992361F0899F90011124832F08
:10212000969FB0011124672F949FA0011124452F81
:10213000E091EA052091E5053091E6059091E705EB
:10214000E91721F0E20FF32FF11D1082E091E7056E
:10215000E20FF32FF11D8083E091E805E20FF32FEA
:10216000F11D60838091E905280F311DF90140833D
:1021700008958CBD9DBD08959B01DC011896ED91DD
:10218000FC9141E067E10994833081F028F48130CB
:1021900099F08230A9F008958730A9F08830C9F00D
:1021A0008430B1F4809180008F7D03C080918000E5
:1021B0008F7780938000089584B58F7784BD0895CC
:1021C00084B58F7DFBCF8091B0008F778093B00076
:1021D00008958091B0008F7DF9CFCF93DF93282FA2
:1021E00030E0F901E95EF84F8491F901E159F84FC7
:1021F000D491F901E55AF84FC491CC23A1F0811193
:102200000E94C410EC2FF0E0EE0FFF1FE95BF84FC7
:10221000A591B491EC91ED2381E090E009F480E088
:10222000DF91CF91089580E090E0FACF1F93CF9394
:10223000DF93282F30E0F901E95EF84F8491F9012E
:10224000E159F84FD491F901E55AF84FC491CC23E4
:10225000A9F0162F81110E94C410EC2FF0E0EE0FB0
:10226000FF1FEF5AF84FA591B4918FB7F894EC91F6
:10227000111108C0D095DE23DC938FBFDF91CF9181
:102280001F910895DE2BF8CFEF92FF920F931F93CB
:10229000CF93DF939091B4059F3F71F48EBD000002
:1022A0000DB407FEFDCFCEB58C2FDF91CF911F91DE
:1022B0000F91FF90EF900895D82FC0E007E010E055
:1022C000EE24E394F12CCC0F60E08091B4050E94E1
:1022D0001611B701002E01C0660F0A94EAF76D23AC
:1022E0008091B2050E94161161E08091B4050E94B0
:1022F00016118091B3050E94ED10892B09F0C16081
:102300000150110900F7D0CFCF93DF9390E0FC018B
:10231000E159F84F2491855A984FFC018491882304
:10232000C9F090E0880F991FFC01E35FF84FA59179
:10233000B491FC01EF5AF84FC591D49161110DC0D1
:102340009FB7F8948C91209582238C9388812823C1
:1023500028839FBFDF91CF910895623051F49FB7DA
:10236000F8943C91822F809583238C93E8812E2BC7
:10237000EFCF8FB7F894EC912E2B2C938FBFEACF31
:102380003FB7F8948091070390910803A091090347
:10239000B0910A0326B5A89B05C02F3F19F00196FE
:1023A000A11DB11D3FBFBA2FA92F982F8827BC01AF
:1023B000CD01620F711D811D911D43E0660F771FD6
:1023C000881F991F4A95D1F708950F931F93CF93B4
:1023D000DF93CDB7DEB729970FB6F894DEBF0FBEF7
:1023E000CDBF0E94C0110091EB051091EC0520912A
:1023F000ED053091EE05601B710B820B930B623380
:1024000071058105910568F3F8948091E10590913B
:10241000E2059A838983A091E505B091E605FD0167
:1024200031968C9189878091DD05A091EF05B0915F
:10243000F005882309F42EC11B82AB32B10509F0E7
:1024400072C09BB18091F105982B98879BB18095C4
:1024500089238F838F818C83898587FF02C088853C
:102460008C8358856F8149853C812B8189819A8134
:102470005BB9262F3BB900C046FD252F6BB900C0C4
:102480005BB9362F2BB900C045FD352F6BB900C0A5
:102490005BB9262F3BB900C044FD252F6BB900C0A6
:1024A0005BB9362F2BB900C043FD352F6BB900C087
:1024B0005BB9262F3BB900C042FD252F6BB900C088
:1024C0005BB9362F2BB900C041FD352F6BB900C069
:1024D0005BB9262F3BB900C040FD252F6BB9019792
:1024E0005BB9362F2BB9419147FD352F6BB901F6FA
:1024F00049873C832B839A83898378940E94C011F7
:102500006093EB057093EC058093ED059093EE05D9
:1025100029960FB6F894DEBF0FBECDBFDF91CF91E5
:102520001F910F910895A532B10509F058C095B1DA
:102530008091F105982B988795B1809589238F8399
:102540008F818C83898587FF02C088858C8358851D
:102550006F8149853C812B8189819A8155B9262FCC
:1025600035B900C046FD252F65B900C055B9362FD5
:1025700025B900C045FD352F65B900C055B9262FD6
:1025800035B900C044FD252F65B900C055B9362FB7
:1025900025B900C043FD352F65B900C055B9262FB8
:1025A00035B900C042FD252F65B900C055B9362F99
:1025B00025B900C041FD352F65B900C055B9262F9A
:1025C00035B900C040FD252F65B9019755B9362FA3
:1025D00025B9419147FD352F65B901F689CF989707
:1025E00009F08BCF98B18091F105982B988798B11D
:1025F000809589238F838F818C83898587FF02C093
:1026000088858C8358856F8149853C812B818981A0
:102610009A8158B9262F38B900C046FD252F68B9D0
:1026200000C058B9362F28B900C045FD352F68B90C
:1026300000C058B9262F38B900C044FD252F68B90D
:1026400000C058B9362F28B900C043FD352F68B9EE
:1026500000C058B9262F38B900C042FD252F68B9EF
:1026600000C058B9362F28B900C041FD352F68B9D0
:1026700000C058B9262F38B900C040FD252F68B9D1
:10268000019758B9362F28B9419147FD352F68B9C0
:1026900001F62ECF9C918091F105982B98879C9103
:1026A000809589238F838F818E8388E08D835885E1
:1026B0006F8149853D812E8189819A815C9347FD97
:1026C000252F2C93262F3A9531F0441F6C9300C090
:1026D00000C000C0F3CF6C93000038E04191019737
:1026E00069F7B093F005A093EF0549873D832E83EA
:1026F00002CF8F929F92AF92BF92CF92DF92EF92D2
:10270000FF926B017C010E94C0114B015C01C1145E
:10271000D104E104F104B9F00E94C01168197909EB
:102720008A099B09683E73408105910580F321E089
:10273000C21AD108E108F10888EE880E83E0981EDD
:10274000A11CB11CE4CFFF90EF90DF90CF90BF9021
:10275000AF909F908F90089508950895EF92FF9203
:102760000F931F93CF93DF938C017B01D0E0C0E0E8
:10277000F701EC0FFD1F6491662361F0D801ED9124
:10278000FC910190F081E02DC8010995892B11F091
:102790002196EECFCE01DF91CF911F910F91FF9047
:1027A000EF900895AF92BF92CF92DF92EF92FF9297
:1027B0000F931F93CF93DF936C017B018B01040F69
:1027C000151FEB015E01AE18BF08C017D10759F005
:1027D0006991D601ED91FC910190F081E02DC60147
:1027E0000995892B79F7C501DF91CF911F910F9141
:1027F000FF90EF90DF90CF90BF90AF900895FC01D5
:10280000538D448D252F30E0842F90E0821B930B55
:10281000541710F0CF96089501970895FC01918DFB
:10282000828D981761F0A28DAE0FBF2FB11D5D96FE
:102830008C91928D9F5F9F73928F90E008958FEFA0
:102840009FEF0895FC01918D828D981731F0828D54
:10285000E80FF11D858D90E008958FEF9FEF0895AB
:10286000FC01918D228D892F90E0805C9F4F821B0F
:1028700091098F73992708958CE793E00E94301493
:1028800021E0892B09F420E0822F089580E090E078
:10289000892B29F00E943C1481110C9400000895AA
:1028A000FC01A48DA80FB92FB11DA35ABF4F2C91C5
:1028B000848D90E001968F739927848FA689B789BC
:1028C0002C93A089B1898C91837080648C93938DB3
:1028D000848D981306C00288F389E02D80818F7D56
:1028E00080830895EF92FF920F931F93CF93DF930E
:1028F000EC0181E0888F9B8D8C8D98131AC0E8893C
:10290000F989808185FF15C09FB7F894EE89FF890A
:102910006083E889F98980818370806480839FBFA8
:1029200081E090E0DF91CF911F910F91FF90EF90A8
:102930000895F62E0B8D10E00F5F1F4F0F731127B8
:10294000E02E8C8D8E110CC00FB607FCFACFE889F3
:10295000F989808185FFF5CFCE010E945014F1CF17
:10296000EB8DEC0FFD2FF11DE35AFF4FF0829FB767
:10297000F8940B8FEA89FB8980818062CFCFCF9357
:10298000DF93EC01888D8823B9F0AA89BB89E88997
:10299000F9898C9185FD03C0808186FD0DC00FB63D
:1029A00007FCF7CF8C9185FFF2CF808185FFEDCFBB
:1029B000CE010E945014E9CFDF91CF910895DC0140
:1029C0001A96ED91FC9130E020E00994DC01169616
:1029D000ED91FC9130E020E040E069E10994DC01F8
:1029E0001696ED91FC9130E020E040E068E109941A
:1029F0009A01DC011696ED91FC91462F67E109944E
:102A0000EF92FF920F931F93CF93DF931F92CDB757
:102A1000DEB77C018B01D8016C91673129F150F44C
:102A20006531A0F40F90DF91CF911F910F91FF902E
:102A3000EF9008956A3118F16E3FA1F7F8014181D6
:102A4000498369E2C7010E94DF140BC0F80141818C
:102A50004983D7011696ED91FC9130E020E0C70143
:102A600009950E5F1F4FD7CFF80181818983AE0191
:102A70004F5F5F4F61E0C7010E94F814F2CF0F5F14
:102A80001F4FD7011696ED91FC9130E020E040E019
:102A9000C7010995C0CF462FDC011696ED91FC9138
:102AA00030E020E066E10994462FDC011696ED91B6
:102AB000FC9130E020E065E10994EF92FF920F93E2
:102AC0001F93CF93DF93EC01042F79016D3009F44C
:102AD00046C050F46B30C9F1693009F49FC06A30C8
:102AE00009F465C080E046C06E3009F452C06F3012
:102AF00099F70E94EF14F7011381110F110F110FB5
:102B00006C89160F60E4CE010E945415612F629506
:102B10006F706061CE010E945415612F6F70CE01FD
:102B20000E944B15F7016481606BCE010E944B152A
:102B3000F701408151816281660F660F660FCE01F9
:102B40000E94F8140150A1F72EC061E671E0442301
:102B500011F06CE571E0CE010E9400150AC0411130
:102B600010C065E571E00E940015E881F981828955
:102B70008C8B81E0DF91CF911F910F91FF90EF90AF
:102B800008956EE471E00E940015E881F98183895F
:102B9000EFCF0E94EF1461E8CE010E945415602F20
:102BA000CE010E944B15CE010E94E614E2CFEA85C9
:102BB000FB8530E020E040E068E2CE010995EE813F
:102BC000FF8130E020E040E064E1CE01099541E082
:102BD0006BE4CE010E94DF14E881F981448169E24F
:102BE000CE010E94DF1440E06BE4CE010E94DF14AE
:102BF000E881F981448169E2CE010E94DF1441E05D
:102C00006BE4CE010E94DF14E881F981458169E21D
:102C1000CE010E94DF1466E671E09DCF8BE991E062
:102C2000998388831C8AA5CFDC011896ED91FC91CD
:102C300030E020E040E069E10994DC011896ED9174
:102C4000FC9130E020E040E068E10994CF93DF930D
:102C50001F92CDB7DEB76983BE016F5F7F4F0E94C1
:102C6000BC100F90DF91CF910895EF92FF921F93C8
:102C7000CF93DF93EC01162F7A010E941D1660E4BA
:102C8000CE010E942616E885F9859701412F67E15C
:102C9000CE010995CE01DF91CF911F91FF90EF906A
:102CA0000C941416EF92FF921F93CF93DF93EC01D5
:102CB000142F7901663181F138F4643109F44BC085
:102CC000653179F080E022C06831C9F150F1693195
:102CD000C9F78091F802882391F1CE010E94141661
:102CE0002EC08091F802882319F0CE010E9414169C
:102CF000CE010E941D1660E0CE010E942616612FB3
:102D0000CE010E94261681E08093F802DF91CF91D8
:102D10001F91FF90EF900895642F0E94261681E086
:102D2000F5CF8091F802882319F0CE010E94141685
:102D3000A701193138F4612FCE010E943516109287
:102D4000F802EDCF68E1CE010E943516185188E1F6
:102D5000E80EF11CEDCF8E898F3F11F488E78E8B42
:102D6000E885F9859701412F64E1CE01DF91CF918C
:102D70001F91FF90EF900994FC016623D9F16A300E
:102D8000C9F1808D811125C06C3F48F085E0808FAE
:102D9000617070E0738B628B2EEF3FEF29C0683F4C
:102DA00020F084E0808F6370F4CF603F20F083E0F8
:102DB000808F6770EECF603E20F082E0808F6F7072
:102DC000E8CF262F30E0603C98F081E0808F6F7173
:102DD000E0CF8150808F2289338996E0220F331F04
:102DE0009A95E1F76F73262B338B228B8111D4CF09
:102DF000C90108952FEF3FEFFBCF0F93DC01DE9663
:102E00003C91DE97431BD496ED91FC9109950F916F
:102E10000895FC01ED5BFF4F10823196DC01AF5B42
:102E2000BF4F2C9120833196DC01DF962C912083BB
:102E30003196805C9F4FDC018C9180830895CF9305
:102E4000DF93FC01A081B18182AD982F990F990F7A
:102E5000990F95AF50969C915097903208F09FE152
:102E6000990F990F990F94AF23AD922F990F990F46
:102E7000990F96AF51963C915197682F620F772723
:102E8000771F3617170614F4832F821B97AFEF01B5
:102E9000C05CDF4F880F880F880F890F88832196C9
:102EA00080EF888354968D919C915597813F910531
:102EB00008F48883EE5BFF4F56968C918083DF91F8
:102EC000CF910895FC01E95BFF4F20813181295E9C
:102ED0003F4F6F3F710509F010F561367105A0F0A5
:102EE00086599F4FFC0180819181280F391FC901AC
:102EF0000196FC014491442391F0F9014491461755
:102F0000170641F4019608956134710580F38859DC
:102F10009F4FE8CFFC018491280F311DE8CF90E04E
:102F200080E00895DC0118964C911897ED91FC9182
:102F30001197249130E0042E02C0359527950A940C
:102F4000E2F7842F860F883068F031961196FC9353
:102F5000EE93E49198E0941B01C0EE0F9A95EAF786
:102F60002E2B885018968C938FEF9FEF01C0880FFF
:102F70006A95EAF78095822308950F931F93CF9364
:102F8000DF938C01EC01C55BDF4F79836883188682
:102F9000FC01E55AFF4F6081CE010E9492178E839B
:102FA000F801E45AFF4F6081CE010E9492178F838F
:102FB000F801EF58FF4F90819A8781E0911180E0EE
:102FC0008B87DF91CF911F910F910895CF93C62FDB
:102FD0000E949217C15021E030E001C0220FCA9533
:102FE000EAF7821BCF9108950F931F93CF93DF933E
:102FF0001092660610922D068C01D0E0C0E0F80118
:1030000061918F01E0911706F091180685E196E035
:1030100009958F3F980749F18E3F2FEF920779F37B
:10302000BC0185E196E00E9462170097E1F0BC01C7
:1030300085E196E00E94BD176091720680E696E0F9
:103040000E94E617809384066091730680E696E0FE
:103050000E94E6176091740680E696E00E94E617EB
:10306000D82FC80FCCCF80E0FBCF80916606882395
:1030700029F090918406890FC80FCD1B8C2FDF910A
:10308000CF911F910F910895FC01E60FF11D8491DE
:1030900090E0982F88273196E4918E0F911D089526
:1030A000CF93DF9320915C0630915D062817390796
:1030B00009F488C0EC0190935D0680935C06FC01E6
:1030C000849180936C063196E491E0936D06FE0145
:1030D0003296E491E0936E06FE013396E491E0931C
:1030E0006F06FE013496E491E0937006FE0135967A
:1030F000E491E0937106FE013696E491E093720646
:10310000FE013796E491E0937306FE013896E49150
:10311000E0937406FE013996E491E0937506FE0192
:103120003A96E491E0937606FE013B96E491E093B3
:103130007706FE013C96E491E0937806FE013D9609
:10314000E491E0937906FE013E96E491E0937A06DD
:10315000FE013F96E491E0937B06FE017096E491B8
:10316000E0937C0661E1CE010E94441890937E06B4
:1031700080937D0663E1CE010E94441890938006FF
:1031800080937F0680915C0690915D06892BD1F03B
:10319000809179068093820640917A064093830657
:1031A00090918106992371F0913079F490917B068A
:1031B000891714F49093820680917C06841714F486
:1031C00080938306DF91CF91089530917606209108
:1031D0007806082E000C990B622F022E000C770B3C
:1031E000630F711D37FD7A95861797071CF4320F10
:1031F00030938206241734F720938306E3CFCF93CE
:10320000DF93EC016BAFEEA9FFA90190F081E02DF7
:103210000995EEA9FFA90280F381E02DCE01DF918F
:10322000CF910994AF92BF92CF92DF92EF92FF922B
:103230000F931F93CF93DF9300D000D01F92CDB791
:10324000DEB78C01DC01DA96AC90DA97DB96EC9075
:10325000DB97ED91FC91B188FE2CD12CC12CD801CB
:10326000ED91FC9111978089D8962D913C911C820B
:10327000FD828B83B8E08B9FC00111248C9DA0013F
:103280008D9D500D9C9D500D1124240F351F3A83A8
:103290002983D8011496ED91FC919E012F5F3F4F39
:1032A00041E06FE0C8010995F3948F2D8E198A15BE
:1032B00028F4BFEFCB1ADB0AFB1488F20F900F90B3
:1032C0000F900F900F90DF91CF911F910F91FF9072
:1032D000EF90DF90CF90BF90AF9008950F931F9322
:1032E000CF93DF938C01C62F642FCC32E8F4CA321F
:1032F00008F041C0C83271F1C93209F442C080E01F
:10330000C034D0F1CF73F801EC0FF11D868D8F3FE3
:1033100091F1C031E0F00E94ED1021E0892B09F419
:1033200020E0F801218F27C0CD3289F140F384EBF2
:103330008C0F823020F7CF73C00FD12FD11D8E8D0F
:1033400041112CC061E00E94841160E08E8D0E94CA
:10335000161111C0025E1F4FD0E0F80181918F015C
:103360008F3F31F061E0D03108F062E00E948411BB
:10337000DF5FD63191F781E0DF91CF911F910F91FF
:10338000089570E090E080E00E947913F4CF43301C
:1033900090F786E090E00197F1F7EDCF62E00E94B0
:1033A0008411E9CF209100033091010328173907D8
:1033B00071F49091FE028091FF02981741F0E09124
:1033C000FE02F0E0E854FD4F808190E008958FEF19
:1033D0009FEF08950895EF92FF920F931F93CF935D
:1033E000DF93DC015C96ED90FC905D97E114F104B5
:1033F00079F481E090E013969C938E93129790E07D
:1034000080E0DF91CF911F910F91FF90EF90089591
:103410005196ED91FC91529750968C915097982F20
:1034200090950FB75E962C915E97122F127021FD2A
:103430006095F8942081112319F1282B2083E7014E
:103440002197F1F728E0462F50E0308160FF1AC045
:10345000382B3083E7012197F1F7BA01759567950D
:10346000215089F7112381F08081892380830FBF48
:103470005C968D919C910197F1F781E090E0C1CF2E
:103480002923DCCF3923E5CF9081892BEFCF209101
:103490000003309101032817390771F48091FF026E
:1034A0002091FE0290E0805C9F4F821B910960E4B6
:1034B00070E00E94A032089590E080E0089520918D
:1034C00000033091010328173907B9F49091FE02E7
:1034D0008091FF02981789F0E091FE02F0E0E85435
:1034E000FD4F80812091FE0230E02F5F3F4F2F7310
:1034F00033272093FE0290E008958FEF9FEF089509
:103500008F929F92AF92BF92CF92DF92EF92FF92F3
:103510001F93CF93DF93FC0115AD112389F1EC01CB
:10352000912C812CC12CD12C7601A12EB12C8A1486
:103530009B0474F42991399149915991C701B601BD
:103540000E94E5326B017C01FFEF8F1A9F0AEFCFDB
:10355000612F70E090E080E00E940C319B01AC0193
:10356000C701B6010E945133DF91CF911F91FF90A7
:10357000EF90DF90CF90BF90AF909F908F90089585
:1035800060E070E0CB01F0CFFC0184AD90E0DC01A5
:10359000AA0FBB1FAA0FBB1FAE0FBF1F4D935D939A
:1035A0006D937C93139701966FE070E00E94A032B8
:1035B00084AF85AD8F5F803110F485AF08958FE0C3
:1035C000FCCF089520919502260F3327331F213217
:1035D0003105ECF420917203FC0190E080E024308E
:1035E00069F082E00895A09195022191AC014B58B9
:1035F0005D4FA40FB52FB11D2C930196861798F33C
:1036000080919502680F6093950280E0089581E0B3
:1036100008951092720381E08093510310924C033D
:1036200061E082E10E94161161E083E10E941611BF
:10363000E9EBF0E080818E7F808380818D7F8083C5
:1036400080E28093B80085E48093BC000895CF9316
:10365000DF9391E0909374028823B9F0C091B80091
:10366000D091BA008091BC008A7B8093BC0060E05E
:1036700082E10E94161160E083E10E9416110E940F
:10368000091BD093BA00C093B800DF91CF91089581
:10369000CF92DF92EF92FF920F931F93CF93DF931E
:1036A000D82FC62F613208F098C00E94C0116B015C
:1036B0007C018091720381116BC081E08093720361
:1036C000809351039FEF9093500310924F039C0FF0
:1036D00090934E0380934D0380914D03DD0FD82BC3
:1036E000D0934D0380914C03813009F078C0109243
:1036F0004C030E94C0116B017C0180914D038093AB
:10370000BB008091740390917503A0917603B091F2
:103710007703892B8A2B8B2BA1F00E94C01100917B
:1037200074031091750320917603309177036C191F
:103730007D098E099F09061717072807390708F41E
:1037400048C08091BC0083FDD8CF85EC8093BC003D
:103750000E94C0116B017C0180917203813009F4D9
:1037600040C080914F038C1710F4C0914F03ECE2DE
:10377000F3E0A2E5B3E080E08C1355C08C2FDF911D
:10378000CF911F910F91FF90EF90DF90CF90089510
:103790008091740390917503A0917603B0917703A3
:1037A000892B8A2B8B2B09F484CF0E94C0110091A6
:1037B00074031091750320917603309177036C198F
:1037C0007D098E099F09061717072807390708F092
:1037D00070CF809173030E94271BC0E0CFCF85EE8E
:1037E000B5CF8091740390917503A0917603B09149
:1037F0007703892B8A2B8B2B09F4AECF0E94C01143
:103800000091740310917503209176033091770332
:103810006C197D098E099F090617170728073907B4
:1038200008F09ACFD6CF91919D938F5FA5CFE0916D
:103830002B0380912A03E81730F4F0E0EE5AFC4F96
:10384000808190E008958FEF9FEF089590912B0372
:1038500080912A032FEF3FEF981748F4E92FF0E00B
:10386000EE5AFC4F208130E09F5F90932B03C901FB
:10387000089580912A0390912B03891B990B089539
:10388000CF92DF92EF92FF920F931F93CF93DF932C
:103890007C01CB018A0120917B03222389F0EB017B
:1038A0006B01C40ED51ECC15DD0569F06991D701F9
:1038B000ED91FC910190F081E02DC7010995F3CFC6
:1038C000642F0E94E21AC801DF91CF911F910F91DE
:1038D000FF90EF90DF90CF900895CF93DF931F92EA
:1038E000CDB7DEB7698320917B032223F9F02091C5
:1038F0007803203258F021E030E0FC01338322834A
:1039000090E080E00F90DF91CF910895809179034E
:10391000E82FF0E0EC5AFD4F998190838F5F809300
:1039200079038093780381E090E0ECCF61E0CE01F1
:1039300001960E94E21AF7CFCF92DF92EF92FF92A8
:103940000F931F93CF93DF93D091780381E0D1320F
:1039500008F09CC0C0917A030E94C0116B017C01E9
:103960008091720381116CC082E08093720381E0C8
:10397000809351038FEF8093500310924F03D093A5
:103980004E03A4E5B2E0ECE2F3E080E0D8138DC092
:1039900010924D0380914D03CC0FC82BC0934D0363
:1039A00080914C03813009F084C010924C030E9436
:1039B000C0116B017C0180914D038093BB0080910D
:1039C000740390917503A0917603B0917703892BCE
:1039D0008A2B8B2BA1F00E94C011009174031091CF
:1039E000750320917603309177036C197D098E0958
:1039F0009F09061717072807390708F442C0809166
:103A0000BC0083FDD8CF85EC8093BC000E94C01120
:103A10006B017C0180917203823009F44CC080916B
:103A200050038F3F09F469C080915003803209F43C
:103A300066C080915003803309F463C084E026C0DF
:103A40008091740390917503A0917603B0917703F0
:103A5000892B8A2B8B2B09F483CF0E94C0110091F4
:103A600074031091750320917603309177036C19DC
:103A70007D098E099F09061717072807390708F0DF
:103A80006FCF809173030E94271B85E0109279030A
:103A90001092780310927B03DF91CF911F910F91C9
:103AA000FF90EF90DF90CF9008959D9191938F5F5D
:103AB0006DCF85EEA9CF8091740390917503A0918D
:103AC0007603B0917703892B8A2B8B2B09F4A2CF35
:103AD0000E94C01100917403109175032091760328
:103AE000309177036C197D098E099F090617170716
:103AF0002807390708F08ECFC4CF80E0C7CF82E017
:103B0000C5CF83E0C3CFCF93DF93EC01962F68310D
:103B100009F445C0B901993130F4943199F09731E5
:103B200059F080E006C0993109F45BC09032C9F7C2
:103B300081E0DF91CF91089550E089E194E00E9407
:103B4000401CF6CF8C859D85AE85BF85892B8A2B41
:103B50008B2B71F4E881F981A585B0E020EA36E885
:103B600041E050E00E942B326C877D878E879F87D3
:103B700010922B0310922A0310927903109278036B
:103B80000E94091B8CEA93E19093FB028093FA0256
:103B90008DEA93E19093FD028093FC02C9CF2C85BE
:103BA0003D854E855F8560E072E18AE790E00E9486
:103BB000B43220513109410951095695479537953D
:103BC00027952093B8008E8990E09595879591E090
:103BD00090937B0380937A03109279031092780379
:103BE000A7CF89E194E00E949C1CA2CFCF93DF93E2
:103BF000D82FC62F8091B1058F3F59F580919E0532
:103C000090919F052091A80531E030937B0320938C
:103C10007A031092790310927803DC01ED91FC9104
:103C20000190F081E02D6D2F099580919E05909176
:103C30009F05DC01ED91FC910190F081E02D6C2F4E
:103C4000099580919E0590919F05DF91CF910C94ED
:103C50009C1C8091B4058F3F21F481E590E00E9487
:103C6000B91060E08091B1050E9416118D2F8F77F9
:103C70000E9444118C2F0E94441161E08091B10593
:103C8000DF91CF910C9416114F925F926F927F92B9
:103C9000AF92BF92CF92DF92EF92FF920F931F935A
:103CA000CF93DF936B017C01EA010E94CA33FE01CE
:103CB00050E040E0808191816817790728F0828187
:103CC00093818617970740F44F5F5F4F34964630D5
:103CD000510581F74FEF5FEF4F3F540709F454C090
:103CE000440F551F440F551FFA01EA5CFE4F008137
:103CF0001181C40FD51FA880B98062817381601BB8
:103D0000710B90E080E00E940C312B013C016A8134
:103D10007B816A197B0990E080E00E940C319B0155
:103D2000AC01C301B2010E9451332B013C01B5012A
:103D300090E080E00E940C319B01AC01C701B6010C
:103D40000E94E4329B01AC01C301B2010E946D31BB
:103D50006B017C01B80190E080E00E940C319B0176
:103D6000AC01C701B6010E94E532DF91CF911F91EE
:103D70000F91FF90EF90DF90CF90BF90AF907F902A
:103D80006F905F904F90089560E070E08AEF93E449
:103D9000ECCFCF92DF92EF92FF920F931F93CF93CE
:103DA000DF936C01EB017B01E40EF51E10E000E0F7
:103DB000CE15DF0561F06991D601ED91FC9101907E
:103DC000F081E02DC6010995080F191FF1CFC80138
:103DD000DF91CF911F910F91FF90EF90DF90CF90E7
:103DE0000895089590E080E008958F929F92AF9299
:103DF000BF92CF92DF92EF92FF928091B1058F3FF9
:103E000009F0F5C080919E0590919F052091A8052D
:103E100031E030937B0320937A0310927903109260
:103E20007803DC01ED91FC910190F081E02D6AEFC7
:103E3000099580919E0590919F050E949C1C63E0CE
:103E40008091A8050E94481B10922B0380932A039F
:103E500080919E0590919F05DC01ED91FC9102847B
:103E6000F385E02D09954C01990FAA08BB08BA2CDF
:103E7000A92C982C882480919E0590919F05DC01A7
:103E8000ED91FC910284F385E02D0995092E000C3B
:103E9000AA0BBB0B882A992AAA2ABB2ABA2CA92CBE
:103EA000982C882480919E0590919F05DC01ED91CE
:103EB000FC910284F385E02D0995092E000CAA0BD4
:103EC000BB0B6C017D01C828D928EA28FB2860E0DB
:103ED00070E080EC9FE7C114D104B0E8EB06F10478
:103EE00009F47CC08091B9059091BA05B0E0A0E0DA
:103EF0008D2C9E2CAF2CBB24A7FCBA94881A990A4F
:103F0000AA0ABB0A37E0F594E794D794C7943A9588
:103F1000D1F7880F991FAA1FBB1FA7019601281B65
:103F2000390B4A0B5B0BA091BB05B091BC050E94FD
:103F3000D6326B017C015BE0F594E794D794C7948B
:103F40005A95D1F7A5019401C501B4010E947C32B4
:103F50009B01AC016CE055954795379527956A957F
:103F6000D1F7A091BD05B091BE050E94D6329B014C
:103F7000AC017EE055954795379527957A95D1F711
:103F80002C0D3D1D4E1D5F1D8091B5059091B60510
:103F9000A091B705B091B805280F391F4A1F5B1FC4
:103FA0002093AD053093AE054093AF055093B00517
:103FB000A5E0B0E00E942B3260587F4F8F4F9F4F9B
:103FC000672F782F892F992787FD9A950E940E31A8
:103FD00020E030E048EC52E40E945133FF90EF9033
:103FE000DF90CF90BF90AF909F908F900895809179
:103FF000B4058F3F21F481E590E00E94B91060E0A4
:104000008091B1050E9416118AEF0E94441180E050
:104010000E94441190E0B0E0A0E0CC24D82EE92E1C
:10402000FA2E80E00E944411C82AFE2CED2CDC2CD4
:10403000CC2480E00E944411C82A61E08091B1053F
:104040000E94161144CFCF93C82F8091B1058F3FA6
:10405000A9F580919E0590919F052091A80531E0DA
:1040600030937B0320937A031092790310927803A4
:10407000DC01ED91FC910190F081E02D6C2F099510
:1040800080919E0590919F050E949C1C61E080910B
:10409000A8050E94481B10922B0380932A0380914D
:1040A0009E0590919F05DC01ED91FC910284F385C2
:1040B000E02D0995C82F8C2FCF9108958091B405DC
:1040C0008F3F21F481E590E00E94B91060E080917B
:1040D000B1050E9416118C2F0E94441180E00E94AD
:1040E0004411C82F61E08091B1050E941611E3CF01
:1040F000CF93DF93C82F8091B1058F3F09F046C061
:1041000080919E0590919F052091A80531E0309304
:104110007B0320937A031092790310927803DC01D9
:10412000ED91FC910190F081E02D6C2F099580912B
:104130009E0590919F050E949C1C62E08091A805BD
:104140000E94481B10922B0380932A0380919E05A6
:1041500090919F05DC01ED91FC910284F385E02DA7
:104160000995C82F80919E0590919F05DC01ED91E6
:10417000FC910284F385E02D099520E03C2FE901B4
:10418000C82BD92BCE01DF91CF9108958091B40532
:104190008F3F21F481E590E00E94B91060E08091AA
:1041A000B1050E9416118C2F0E94441180E00E94DC
:1041B0004411C82F80E00E944411DC2FC82F61E019
:1041C0008091B1050E941611DDCF0E9478209827BA
:1041D0008927982708952F923F924F925F926F926E
:1041E0007F928F929F92AF92BF92CF92DF92EF9287
:1041F000FF920F931F93CF93DF938C01D62FC42F81
:104200007901FC01E75BFF4F0190F081E02D0995FA
:10421000F801E35BFF4FD08331968C0F8083B701A9
:10422000C8010E946217009709F4C7C0E801C55B86
:10423000DF4FBC01C8010E94BD17F801EE5AFF4FC5
:1042400060803B966081CE010E94E617F82EF8014F
:10425000E25AFF4F6081CE010E94E617E82EF80176
:10426000E15AFF4F6081CE010E94E617782E2E8121
:1042700012160CF05FC08A818F0D8A839B8196197C
:104280009E199B83362D390FF801EB5BFF4F408160
:1042900031965081951708F04AC0431718F0391726
:1042A00008F048C0922F980FF801ED5BFF4F208176
:1042B00031963081831708F051C0291710F09817F4
:1042C000C8F51C821D82580189E5A80EB11C480161
:1042D000EAE58E0E911C6801F1E7CF0ED11CF501C5
:1042E0006081CE010E949217482EF4016081CE01B8
:1042F0000E949217382E2C80ED80F42C5E8052188C
:10430000898581110EC06A814B818B85F60180837E
:10431000252DF51408F42F2D4E0D620DC8010E94B5
:104320005310F514F8F0F518E394212CE7CF431758
:1043300008F4B5CF872DDF91CF911F910F91FF909A
:10434000EF90DF90CF90BF90AF909F908F907F9035
:104350006F905F904F903F902F900895291708F429
:10436000AECFE8CFF20CFC82ED82532C2E802F18BA
:104370006A814B818A85F6018083222D521408F4CC
:10438000252D4E0D6F0DC8010E945310521420F0C0
:104390005218E394F12CEACFF50CFC82ED8261E037
:1043A000CE010E9492178111A6CF8D8186150CF443
:1043B00096CF8A85F6018083BDCF80E0BCCF0F9376
:1043C0001F93CF93DF93EC018C010C5F1F4FFC0117
:1043D000E958FF4F0190F081E02DC80109958E3F0B
:1043E0002FEF920770F4FE01E658FF4FC758DF4FDA
:1043F0009C0140816881C8010E94EB209881890F4F
:10440000888381E090E0DF91CF911F910F91089513
:10441000FC0180819181009711F00C94573608952A
:10442000FC01A081B18150962C9182AD38E0839F30
:10443000C0011124289FA001299F500D112470E074
:1044400060E080AD91AD0C94A6371F93CF93DF93BE
:10445000EC010E9412191BAD8AAD180FE881F98199
:104460008189181768F0EC81FD8130E020E040E0A0
:1044700060E1CE01099580E0DF91CF911F91089511
:10448000FE01EE58FF4F8081882319F0CE010E9473
:104490001022612FCE010E94FF1881E0EDCFCF9353
:1044A000DF93EC01FC01EE58FF4F8081882319F067
:1044B000CE010E94102260E0CE01DF91CF910C94DA
:1044C000FF18FB0101900020E9F73197AF01461B6F
:1044D000570BDC01ED91FC910280F381E02D0994F2
:1044E0008F929F92AF92BF92EF92FF920F931F9382
:1044F000CF93DF93CDB7DEB7A1970FB6F894DEBFA9
:104500000FBECDBF7C01FA01CB0119A2223008F405
:104510002AE08E010F5D1F4F822E912CB12CA12C11
:10452000BF01A50194010E94B432F901CA016A30A9
:104530000CF5605DD8016E938D01232B242B252B68
:1045400079F790E080E0109721F0BD01C7010E944B
:104550006122A1960FB6F894DEBF0FBECDBFDF91EA
:10456000CF911F910F91FF90EF90BF90AF909F90D0
:104570008F900895695CDECFAB0170E060E02AE0C7
:104580000C9470224F925F926F927F928F929F92C3
:10459000AF92BF92CF92DF92EF92FF920F931F9351
:1045A000CF936B017C01742EAC019B010E9481347E
:1045B0006BEF71E0811126C046015701E894B7F80E
:1045C0002FEF3FEF4FE75FE7C501B4010E94813451
:1045D00081110CC02FEF3FEF4FE75FE7C501B4013A
:1045E0000E9407316FEF71E0181664F02FEF3FEF74
:1045F0004FE75FE4C701B6010E94F9331816ACF427
:1046000063E072E08CE793E0CF911F910F91FF90F0
:10461000EF90DF90CF90BF90AF909F908F907F9062
:104620006F905F904F900C9461222FEF3FEF4FE718
:104630005FECC701B6010E94073187FDE1CF20E0A2
:1046400030E0A901C701B6010E94073110E000E087
:1046500087FF0AC06DE28CE793E00E9472148C0120
:10466000F7FAF094F7F8F094C0E060E070E080E0D2
:104670009FE37C1641F020E030E040E251E40E94EC
:104680005133CF5FF6CFA70196010E94E5322B018F
:104690003C010E94CA334B015C012AE0BC01A40129
:1046A0008CE793E00E9470227C01E00EF11ECC2387
:1046B000B1F1C501B4010E940C319B01AC01C301F1
:1046C000B2010E94E4324B015C016EE28CE793E0A0
:1046D0000E947214E80EF91EC15008F120E030E08B
:1046E00040E251E4C501B4010E946D312B013C014F
:1046F0000E94CA334B018CE793E00E94BC22E80E73
:10470000F91EB40190E080E00E940C319B01AC01E5
:10471000C301B2010E94E4324B015C01DDCFC7014D
:10472000CF911F910F91FF90EF90DF90CF90BF90AE
:10473000AF909F908F907F906F905F904F90089573
:10474000CF92DF92EF92FF920F931F93CF93DF935D
:10475000CDB7DEB761970FB6F894DEBF0FBECDBF01
:104760008C01CB01F8011182108213821282158212
:1047700014824AE09E012F5F3F4F6901B9010E94F8
:10478000DD30F60101900020E9F731977F01EC1848
:10479000FD08F80180819181009729F02281338101
:1047A0002E153F0590F4B7016F5F7F4F0E94E036F2
:1047B000F801009799F091838083F382E28224814B
:1047C0003581232B11F4FC011082F801F582E4827B
:1047D000B601808191810E94AD370DC080819181A9
:1047E000009711F00E945736F8011182108215824D
:1047F00014821382128261960FB6F894DEBF0FBE48
:10480000CDBFDF91CF911F910F91FF90EF90DF907F
:10481000CF9008952F923F924F925F926F927F9226
:104820008F929F92AF92BF92CF92DF92EF92FF92C0
:104830000F931F93CF93DF9300D000D000D0CDB75C
:10484000DEB7282E8FE595E00E94801A6B017C016F
:1048500020E030E0A9010E94F93320E030E040E0A0
:104860005FE387FD2BC1C701B6010E94E5320E94BC
:10487000C3337B0181E295E00E94801A4B015C0109
:1048800020E030E0A9010E94F93320E030E040E070
:104890005FE387FD18C1C501B4010E94E5320E94A3
:1048A000C3336B0183EE94E00E94801A4B015C01DC
:1048B00020E030E0A9010E94F93320E030E040E040
:1048C0005FE387FD05C1C501B4010E94E5320E9486
:1048D000C3333B0185EA94E00E94801A4B015C01DE
:1048E00020E030E0A9010E94F93320E030E040E010
:1048F0005FE387FDF2C0C501B4010E94E5320E946A
:10490000C3335B0185E196E00E944F223CE0432ED9
:1049100042E6342E5FE3552E6CEB862E66E1962E32
:1049200086EC9AE10E94501810928A068AE08093E1
:104930008B0660E477E081E196E00E94AE1360911F
:1049400010037091110381E196E00E94BC2280E483
:1049500080938A068AE080938B0669E377E081E1A1
:1049600096E00E94AE13609112037091130381E1EF
:1049700096E00E94BC228AE19AE10E9450188DE0E4
:1049800080938A0640928B0665E377E081E196E0AA
:104990000E94AE138DE480938A0640928B0660E3FA
:1049A00077E081E196E00E94AE13222061F081EB76
:1049B00098E10E94501827E530E040E168E785E182
:1049C00096E00E94EB208FEA9CE00E945018309203
:1049D0008A0686E280938B06B30181E196E00E940D
:1049E000BC226DE277E081E196E00E94AE13309246
:1049F0008A0650928B06B50181E196E00E94BC22A6
:104A00006BE277E081E196E00E94AE1380910B03A8
:104A1000811168C08DE999E00E945018B601CE015D
:104A200001960E94A02389819A8190921806809213
:104A300017060E94F417182FCE0101960E94082233
:104A4000812F90E095958795919581959109835D4A
:104A500080938A0650928B06B60181E196E00E940F
:104A6000BC2286EC9AE10E94501810928A0650925D
:104A70008B0667E072E081E196E00E94612285E1A9
:104A800096E00E94252281114BCF26960FB6F8940E
:104A9000DEBF0FBECDBFDF91CF911F910F91FF9071
:104AA000EF90DF90CF90BF90AF909F908F907F90CE
:104AB0006F905F904F903F902F900895C701B6017F
:104AC0000E94E432D4CEC501B4010E94E432E7CEA4
:104AD000C501B4010E94E432FACEC501B4010E94BE
:104AE000E4320DCF8DE999E00E945018B701CE0154
:104AF00001960E94A02389819A8190921806809243
:104B000017060E94F417082F10E0CE0101960E94AC
:104B1000082205361105BCF083E897E00E94501882
:104B2000B701CE0101960E94A02389819A819092BB
:104B30001806809217060E94F417082F10E0CE0185
:104B400001960E9408221595079511950195110966
:104B5000035D00938A0650928B06B70181E196E0CF
:104B60000E94BC2286EC9AE10E94501810928A069C
:104B700050928B066BE072E07ECF85ED8093BC0097
:104B80008091740390917503A0917603B09177039F
:104B90000796A11DB11D23E0B695A795979587951A
:104BA0002A95D1F72091BC0024FD03C01092720316
:104BB000089540917403509175036091760370914C
:104BC0007703452B462B472B69F30097A105B105C9
:104BD00041F02AE12A95F1F700C00197A109B10936
:104BE000E1CF809173030C94271B1F920F920FB695
:104BF0000F9211242F933F938F939F93AF93BF9363
:104C00008091030390910403A0910503B0910603E2
:104C10003091020326E0230F2D3758F50296A11D8F
:104C2000B11D209302038093030390930403A09388
:104C30000503B09306038091070390910803A091A8
:104C40000903B0910A030196A11DB11D80930703CA
:104C500090930803A0930903B0930A03BF91AF9107
:104C60009F918F913F912F910F900FBE0F901F90AA
:104C7000189529E8230F0396A11DB11DD2CF1F92CD
:104C80000F920FB60F9211242F933F934F935F9380
:104C90006F937F938F939F93AF93BF93EF93FF9304
:104CA0008CE793E00E945014FF91EF91BF91AF9178
:104CB0009F918F917F916F915F914F913F912F9134
:104CC0000F900FBE0F901F9018951F920F920FB666
:104CD0000F9211242F938F939F93EF93FF93E09163
:104CE0008C03F0918D038081E0919203F091930306
:104CF00082FD1BC09081809195038F5F8F732091FF
:104D00009603821741F0E0919503F0E0E458FC4FE0
:104D1000958F80939503FF91EF919F918F912F91A4
:104D20000F900FBE0F901F9018958081F4CF1F92A7
:104D30000F920FB60F9211242F933F934F935F93CF
:104D40006F937F938F939F93AF93BF93EF93FF9353
:104D5000E0910003F0910103309749F0A685B785F3
:104D60008585968D91FF14C09C918923A1F4FF91B4
:104D7000EF91BF91AF919F918F917F916F915F91D3
:104D80004F913F912F910F900FBE0F901F9018954C
:104D90009C91892361F7A389B4899C918589809529
:104DA00089238C93868997890197F1F7608D718D9E
:104DB000A685B785558538E020E0CB010197F1F74E
:104DC000822F90E095958795282F4C91452309F0E7
:104DD0002068315091F7868D81FD20958091FF02EA
:104DE00090E001968F7399273091FE02381799F061
:104DF000A091FF02B0E0A854BD4F2C938093FF0216
:104E0000828D938D0197F1F7A389B4898C9195894F
:104E1000892B8C93ACCF868D8160868FF1CF1F92CA
:104E20000F920FB60F9211242F933F934F935F93DE
:104E30006F937F938F939F93AF93BF93EF93FF9362
:104E40008091B900887F803609F44AC0F0F5883235
:104E500009F4A7C018F5803109F49BC0B8F4882381
:104E600009F4F9C0883009F494C0FF91EF91BF9123
:104E7000AF919F918F917F916F915F914F913F91F2
:104E80002F910F900FBE0F901F901895883109F445
:104E900088C0803251F78093500314C0803409F4E5
:104EA0009DC040F48033B9F38833F9F68093500302
:104EB00085ECB0C0803509F485C0883509F496C00A
:104EC000883499F60E94BD25D0CF883909F48CC06A
:104ED00038F5883729F050F4883611F0803729F6F4
:104EE00083E0809372031092B70257C0883809F4A8
:104EF0007BC0803919F0803809F0B7CF8091B702B4
:104F0000803208F071C0E091B70281E08E0F80938B
:104F1000B7028091BB00F0E0E956FD4F80833DC0B1
:104F2000803B39F0E0F4803A09F479C0883A09F01E
:104F30009CCF84E0809372031092960210929502A7
:104F4000E091FA02F091FB0209958091950281119E
:104F50000FC081E0809395021092750209C0803CD9
:104F600009F4A6CF883C09F4A3CF883B09F07DCF94
:104F7000E091960281E08E0F80939602F0E0EB586C
:104F8000FD4F80818093BB009091960280919502A5
:104F900029C080914D038093BB0085EC8093BC00B9
:104FA00064CF90914F0380914E03981758F5E0918C
:104FB0004F0381E08E0F80934F03F0E0E45DFC4FE0
:104FC0008081E9CFE0914F0381E08E0F80934F0302
:104FD0008091BB00F0E0E45DFC4F808390914F0333
:104FE00080914E039817C8F285E8D8CFE0914F031F
:104FF00081E08E0F80934F038091BB00F0E0E45D71
:10500000FC4F80838091510381115CCF81E08093BC
:105010004C0384EA8093BC001092720326CF85EC87
:105020008093BC00109272038091B702803230F4FA
:10503000E091B702F0E0E956FD4F10826091B702AF
:1050400070E0E091FC02F091FD0287E992E00995A1
:105050001092B7020ACF1092500334CFFC018CE3B8
:10506000DF011D928A95E9F714AE15AE0895CF932E
:10507000DF9310927F0310927E0388EE93E0A0E00E
:10508000B0E08093800390938103A0938203B09358
:10509000830327EB31E030937D0320937C0325ECE1
:1050A00030E0309389032093880324EC30E0309380
:1050B0008B0320938A0320EC30E030938D03209300
:1050C0008C0321EC30E030938F0320938E0322EC8D
:1050D00030E0309391032093900326EC30E030933E
:1050E00093032093920310929503109296031092CB
:1050F00097031092980310921C0410921B04809343
:105100001D0490931E04A0931F04B093200489EC07
:1051100091E090931A04809319041092140610924F
:10512000130684EE9FE09093890680938806109280
:105130008A0610928B0610922D068DEE91E09093C8
:105140001206809311061092160610921506109200
:105150002A0610922106109222061092230610921F
:1051600024068FEF80932B0680932F06E3E3F6E06F
:1051700089E496E0DFEFD1938E179F07E1F78DE585
:1051800095E190931A068093190682E596E1909333
:105190001C0680931B0683E89DE190931E06809376
:1051A0001D068EE699E19093200680931F0630E05D
:1051B00020E040E069E085E196E00E945D151092F4
:1051C0005D0610925C068EEE9FE090934A068093F7
:1051D000490685E294E090934E0680934D06C1E027
:1051E000C0934F06109250061092690610928506E1
:1051F000C0938606C093870685EF91E090934C0696
:1052000080934B0685E196E00E941F17E0914B06C4
:10521000F0914C060280F381E02D85E196E009953E
:1052200081E590E190935F0680935E06D0933E0601
:10523000D0933F06D09340061092F5051092F405E6
:1052400088EE93E0A0E0B0E08093F6059093F70538
:10525000A093F805B093F9058BED91E09093F305D9
:105260008093F205109209061092080610920B0620
:1052700010920A0610920D0610920C0610920F065C
:1052800010920E06809110068E7F8D7F80931006FF
:1052900081FB662760F96C278AE00E94161161E0A5
:1052A0008AE00E948411E9E7F7E0E491E0930206C6
:1052B000E5E6F7E0E491F0E0EE0FFF1FEF5AF84F5C
:1052C00085919491909304068093030660E082E0B8
:1052D0000E9484118091100681FD04C061E082E08B
:1052E0000E94161192E09093FE05E1E7F7E0E49149
:1052F000E093FF05EDE5F7E0E491F0E0EE0FFF1F2E
:10530000E95BF84F25913491309301062093000614
:105310001092DE051092E4051092EB051092EC0558
:105320001092ED051092EE0581E08093EA058093DE
:10533000E7051092E8059093E9058093DD0583E089
:1053400090E09093E2058093E1050E94BB35909335
:10535000E6058093E505009709F45FC023E0FC01B2
:1053600011922A95E9F781E090E09093E00580930F
:10537000DF0583E08093E3058091DE05882341F01B
:1053800061E083E00E94841160E083E00E941611D6
:10539000EEE5F7E0E491F0E0EE0FFF1FEF5AF84F73
:1053A000859194919093F0058093EF05E2E7F7E003
:1053B000E491E093F1051092A3051092A2051092DA
:1053C000A5051092A4051092A7051092A6058FEFCF
:1053D0008093B1058093B2058093B3058093B405A3
:1053E0001092B5051092B6051092B7051092B80547
:1053F0008EE080939D058FE595E00E942E2881E246
:1054000095E00E942E2883EE94E00E942E2885EAE3
:1054100094E0DF91CF910C942E281092E205109227
:10542000E1051092E0051092DF05A3CFCF93DF9343
:10543000CDB7DEB7C254D1090FB6F894DEBF0FBEA8
:10544000CDBF789484B5826084BD84B5816084BD0D
:1054500085B5826085BD85B5816085BD80916E0012
:10546000816080936E001092810080918100826043
:105470008093810080918100816080938100809180
:1054800080008160809380008091B100846080936F
:10549000B1008091B00081608093B00080917A006B
:1054A000846080937A0080917A00826080937A0091
:1054B00080917A008E7F80937A0080917A00806854
:1054C00080937A001092C100E0918C03F0918D03DB
:1054D00082E08083E0918803F09189031082E0915B
:1054E0008A03F0918B0387E6808310929403E09106
:1054F0009003F091910386E08083E0918E03F09118
:105500008F03808180618083E0918E03F0918F030F
:10551000808188608083E0918E03F0918F03808189
:1055200080688083E0918E03F0918F0380818F7D6E
:10553000808316E7712E09E114E085E6E82E87E006
:10554000F82E99E7C92E97E0D92E2CEAA22E23E156
:10555000B22E3DEA832E33E1932E7092A80510936C
:105560009F0500939E058091B1058F3FC9F510926C
:105570002B0310922A0310927903109278030E9451
:10558000091BB092FB02A092FA029092FD02809257
:10559000FC0280ED0E94232090E0B0E0A0E0809328
:1055A000A9059093AA05A093AB05B093AC058036EE
:1055B0009105A105B10509F45FC06FE072E08CE7C9
:1055C00093E00E9461226DE272E08CE793E00E941A
:1055D000612268EE73E080E090E00E947913BDCF15
:1055E00061E00E94161161E08091B1050E94841172
:1055F0008091B4058F3F91F56FB6F8948091F902D0
:10560000811125C0F7018491F6019491E82FF0E013
:10561000EE0FFF1FE35FF84FA591B4918C91982393
:1056200021F461E08AE00E94161161E08AE00E94A4
:1056300084118CB580618CBD8CB580648CBD61E0BB
:105640008DE00E94841161E08BE00E9484118091C2
:10565000F9028F5F8093F9026FBE9BCF61E00E94D9
:10566000841161E08091B2050E94841160E0809114
:10567000B3050E9484118DCF66EB80EE0E94F61D6B
:105680006AE070E080E090E00E94791383EF0E946E
:10569000232080FDF5CF88E80E94E5209093BA058D
:1056A0008093B9058AE80E94E5209093BC05809319
:1056B000BB058CE80E94E5209093BE058093BD0554
:1056C0008EE80E94E5209093C0058093BF0580E995
:1056D0000E94E5209093C2058093C10582E90E9453
:1056E000E5209093C4058093C30584E90E94E520DA
:1056F0009093C6058093C50586E90E94E5209093A6
:10570000C8058093C70588E90E94E5209093CA05E3
:105710008093C9058AE90E94E5209093CC05809387
:10572000CB058CE90E94E5209093CE058093CD05B2
:105730008EE90E94E5209093D0058093CF0581EA01
:105740000E9423208093D10581EE0E94E520909352
:10575000D3058093D20583EE0E9423208093D40545
:1057600084EE0E942320182F85EE0E942320F0E172
:105770001F02900111248F70282B3093D60520939F
:10578000D50586EE0E942320182F85EE0E94232047
:1057900040E114029001112490E0A4E095958795D2
:1057A000AA95E1F7822B932B9093D8058093D70588
:1057B00087EE0E9423208093D9058DEE8093DB0530
:1057C0008091DC058F71806A8093DC058091DA0519
:1057D000807C8093DA0560E084EF0E94F61D609182
:1057E000DC0562956695677082EF0E94F61D8091D8
:1057F000DA05682F677050E2659FB0011124282FE9
:10580000269526952695277094E0299F90011124CE
:10581000622B87FB882780F9682B85EF0E94F61D95
:105820008091DB05682F6770A0E26A9FB0011124A8
:10583000282F2695269526952770B4E02B9F90015A
:105840001124622B8295869586958370682B84EF50
:105850000E94F61D64E670E080E090E00E947913FB
:1058600010920D0610920C0610920B0610920A066A
:1058700010920906109208068DEC90E090930F06A6
:1058800080930E069091FE05963108F047C025E5FD
:1058900030E030930906209308062BEC30E030937B
:1058A0000B0620930A0620E930E030930D06209382
:1058B0000C062091680084E0983048F031E09E307A
:1058C00008F430E081E001C0880F3A95EAF7822BB6
:1058D000809368002DE630E0983050F02BE630E001
:1058E0009E3030F02CE630E0963110F030E020E0D1
:1058F0003093060620930506292F30E0983008F0F3
:10590000A5C081E001C0880F9A95EAF78093070649
:1059100080910E0690910F060197F1F780910C0689
:1059200090910D06892B49F1E0910003F09101035C
:1059300025E0E23FF20709F1309739F0A389B489F5
:105940009C918589809589238C93809110068E7F08
:10595000809310061092FF021092FE0282EF95E0F3
:105960009093010380930003E0910506F0910606F1
:10597000808190910706892B80836AEE70E08CE726
:1059800093E00E94AE136DE272E08CE793E00E9418
:105990006122E0911906F0911A0630E020E040E023
:1059A0006AE085E196E0099585E196E00E944F2244
:1059B00085E196E00E9425228111FACF60E085E121
:1059C00096E00E94FF18E0911906F0911A0630E067
:1059D00020E040E06BE085E196E009958CEB96E1F4
:1059E00090938906809388068091E30587FD08C01F
:1059F00061E00E94841160E08091E3050E9416112D
:105A000081E08093DE056091E405693291F1209197
:105A1000E5053091E605615031F170E08FEF98E2D5
:105A20000E948C32F9014091E1055091E205CF01CD
:105A3000821B930B84179507C8F44081469FC001D1
:105A4000479F900D112490833196EDCF9E3040F406
:105A50002850310981E001C0880F2A95EAF756CF16
:105A60002E503109F7CF70E060E0DCCF89E28093FF
:105A7000E4058091DF059091E005892B29F04FEF37
:105A800060E080E00E9488108091E5059091E60535
:105A9000892B11F00E94E51168EE73E080E090E040
:105AA0000E9479138E010F5D1F4FF0E02F2EF0E062
:105AB0003F2E80910B0331E0832780930B0381E01D
:105AC0000E940A240E94F51E4B015C010E94F51EF3
:105AD0008DEF0E9478206C01F12CE12CC11440E87C
